:1000000019C6000034C6000032C600000C94B527A3
:100010002EC600002CC600002AC6000028C600001C
:1000200026C6000024C600000C9483240C946B2583
:100030000C9425161CC600001AC6000018C6000045
:1000400016C6000014C6000012C6000010C600004C
:100050000EC600000C945F240AC6000008C600000B
:1000600006C6000004C6000002C6000000C600006C
:10007000FEC50000FCC50000FAC50000F8C5000080
:10008000F6C50000F4C50000F2C50000F0C5000090
:10009000EEC50000ECC50000EAC50000E8C50000A0
:1000A000E6C50000E4C50000E2C5000000AF00AEF8
:1000B0000000000000003E5B4F5B3E003E6B4F6B5C
:1000C0003E001C3E7C3E1C00183C7E3C18001C5729
:1000D0007D571C001C5E7F5E1C0000183C18000051
:1000E000FFE7C3E7FF00001824180000FFE7DBE785
:1000F000FF0030483A060E00262979292600407F65
:1001000005050700407F05253F005A3CE73C5A00A3
:100110007F3E1C1C0800081C1C3E7F0014227F220E
:1001200014005F5F005F5F0006097F017F000066CB
:1001300089956A0060606060600094A2FFA29400EC
:1001400008047E04080010207E20100008082A1CE5
:100150000800081C2A0808001E10101010000C1EB1
:100160000C1E0C0030383E383000060E3E0E0600E5
:1001700000000000000000005F0000000007000712
:100180000000147F147F1400242A7F2A12002313F6
:10019000086462003649562050000008070300003A
:1001A000001C224100000041221C00002A1C7F1C70
:1001B0002A0008083E080800008070300000080887
:1001C0000808080000006060000020100804020019
:1001D0003E5149453E0000427F4000007249494976
:1001E00046002141494D33001814127F1000274565
:1001F000454539003C4A4949310041211109070070
:10020000364949493600464949291E000000140074
:1002100000000040340000000008142241001414C3
:1002200014141400004122140800020159090600A8
:100230003E415D594E007C1211127C007F494949B4
:1002400036003E41414122007F4141413E007F490D
:10025000494941007F09090901003E4141517300AC
:100260007F0808087F0000417F4100002040413F97
:1002700001007F08142241007F40404040007F027F
:100280001C027F007F0408107F003E4141413E0078
:100290007F09090906003E4151215E007F091929A5
:1002A000460026494949320003017F0103003F40CF
:1002B00040403F001F2040201F003F4038403F008B
:1002C0006314081463000304780403006159494D62
:1002D0004300007F4141410002040810200000411A
:1002E00041417F00040201020400404040404000C0
:1002F0000003070800002054547840007F2844443D
:100300003800384444442800384444287F00385496
:100310005454180000087E0902001824241C780098
:100320007F080404780000447D4000002040403DE8
:1003300000007F102844000000417F4000007C0442
:10034000780478007C080404780038444444380079
:100350007C1824241800182424187C007C08040429
:10036000080048545454240004043F4424003C40F2
:1003700040207C001C2040201C003C4030403C00C1
:100380004428102844004C9090907C004464544CC5
:1003900044000008364100000000770000000041E2
:1003A000360800000201020402003C2623263C001D
:1003B000000000000000000000000000000000003D
:1003C000C0E0F0F8F81800C0F0FCFEFFFFFFFFFFF0
:1003D000FFFF7E00000000000000000080C0E0E0A1
:1003E000E0E0E0E0E0E0C0800000000080C0E0E08D
:1003F000E0E0E0E0E0E0C080000000E0E0C0C0E05D
:10040000E0E0E00000E0E0C0C0E0E0E0E0E0C0806C
:100410000000000080C0E0E0E0E0E0E0E0E0C0805C
:100420000000000000000000000000000000E0F0FC
:10043000F0F0E0ECEEF7F37020007C7C7C7E007E38
:100440007E7E7F7F7F000080C0E07E5B4F5BFEC0D2
:100450000000C000DCD7DEDEDED7DC00C00000001C
:10046000000000000000000000000000000000008C
:10047000000000000000000000F8FCFEFFE000FFAC
:10048000FFFFFFFFFF80FFFFFFFFFFFFFFFFFF1FDB
:100490000701000000000000000000FFFFFF8100D6
:1004A000000000000081C3C3C30000FFFFFF810004
:1004B000000000000081FFFFFF0000FFFFFF0100C0
:1004C0000000000000FFFFFF010000000001FFFF2F
:1004D000FF0000FFFFFF9D1C1C1C1C1C1C9DDFDF80
:1004E000DF000000000000000000000000000F1FFF
:1004F0003F7F7F7F7F7F3F1E0C001F1F1F3F003FFE
:100500003F3F7F7F7F00307B7F7830202030787FB7
:100510003B0003000F7F0F0F0F7F0F000300000051
:1005200000000000000000000000000000000000CB
:10053000000000000000000000030F1F3F3F3F3F8E
:100540001F1F3F3F7F7F7F3F3F1F3F7F7F7F7F7C1E
:100550007878381C0F000000000000000103070736
:10056000070707070707030100000000010307074B
:100570000707070707070301000000070707000038
:100580000000000000070707000000000000070748
:100590000700000001030707070707070707030114
:1005A000000000000000000000000000000000004B
:1005B000000000000000000000000000000000003B
:1005C000000000000000000000000000000000002B
:1005D000000000000000000000000000000000001B
:1005E000000000000000000000000000000000000B
:1005F00005010980A101850319012AB7001501260B
:10060000B700950175108100C0050C0901A1018595
:100610000419012AA002150126A002950175108176
:1006200000C005010906A1018506050719E029E7B3
:10063000150025019508750181020507190029EFAC
:100640001500250195F0750181020508190129059C
:10065000950575019102950175039101C005010988
:1006600006A101050719E029E71500250195087580
:100670000181029501750881010507190029FF15FF
:100680000026FF0095067508810005081901290557
:1006900015002501950575019102950175039101DC
:1006A000C009023B00020100A0FA09040000010396
:1006B0000101000921110100012244000705810305
:1006C00008000109040100010300000009211101D3
:1006D0000001226D000705820320000112010002C3
:1006E00000000008534601000100010200010C0354
:1006F00043006F0072006E0065000000100366008A
:100700006F006F007300740061006E00000004034E
:1007100009040001010101010101010102020202BB
:10072000020202020203030303030303030404049B
:100730000404040405050505050606060606070764
:1007400007070708080808090909090A0A0A0B0B1C
:100750000B0C0C0C0D0D0D0E0E0E0F0F0F101011BB
:100760001111121213131414151516161717181841
:1007700019191A1A1B1B1C1D1D1E1E1F20202122A9
:1007800022232424252626272829292A2B2C2D2DEF
:100790002E2F30313232333435363738393A3B3C0C
:1007A0003D3E3F404142434445464748494A4C4DFF
:1007B0004E4F50515354555658595A5B5D5E5F61C8
:1007C0006264656668696B6C6D6F7072737577785B
:1007D0007A7B7D7E8082838587888A8C8E8F9193B9
:1007E0009596989A9C9EA0A2A3A5A7A9ABADAFB1E0
:1007F000B3B5B7BABCBEC0C2C4C6C9CBCDCFD1D4C5
:10080000D6D8DBDDDFE2E4E7E9EBEEF0F3F5F8FA6A
:10081000FDFF00DA0281FFD9F1DB20A4A62EAF0094
:10082000A0C0D30000A1C8D30000AED580A81F404F
:100830008D142000808182838485868788898A8BB5
:100840008C8D8E8F9091929394A0A1A2A3A4A5A623
:10085000A7A8A9AAABACADAEAFB0B1B2B3B4C0C19A
:10086000C2C3C4C5C6C7C8C9CACBCCCDCECFD0D1F0
:10087000D2D3D4003A002C206B007800556E64650A
:10088000660041646A757374005261697365004C57
:100890006F7765720044656661756C74004C6179B0
:1008A00065723A2000000014001A000800150017B5
:1008B00000000004211622072409000A0000001D80
:1008C000001B00060019000500000000000000E702
:1008D0000021522C000000130012000C0018001C14
:1008E00000000034210F320E340D000B00000038E0
:1008F000003700360010001100000000000000E684
:100900000029421E7C0000290036023500370257BC
:10091000000000407E23026700210225020000380B
:100920000224021F0222020000000000000000E377
:100930000001002C0000002A00300235022F023195
:100940000200003302270256002602200200003176
:100950000030002D022F003300000000000000E6F0
:1009600000235228120000290000000000000000AF
:100970000000001E001F2220002100220000002491
:1009800052000000000000000000000000000026EF
:100990005223522B0000002A00000000000000003B
:1009A0000000002700260025002400230000003856
:1009B000003700360000000000000000000000E6E4
:1009C00000010028000000290050044F14AE000070
:1009D000000000E0004A224E244D0000000000000C
:1009E000001B13061319135001000000000000E360
:1009F0000001002C0000004C002B112B134B0005B4
:100A0000520000E4004F325234510050000000A860
:100A100000A900AA00BD00BE00000000000000E622
:100A20000001001E7C00000000000000000000002B
:100A300000000000000000000000000000000000B6
:100A400000000000000000000000000000000000A6
:100A50000001002C0000000000610060005F000049
:100A600000000000005E005D005C0000000000006F
:100A7000005B005A00590000000000000000006305
:100A80000062005800000029000000000000000083
:100A90000000004C001E001F00200024000000E1A8
:100AA0000000000000000000000000000000000046
:100AB0000000002C0000002A0000000000000000E0
:100AC00052000000004F00520050000000000000E3
:100AD00000000051000000000000000000000000C5
:100AE00000000028000000000000000000000000DE
:100AF0000000003A003B003C003D003E00000000CA
:100B000000000000000000000000000000000001E4
:100B100000010001000000000000000000000000D3
:100B200000000043004200410040003F0000000080
:100B3000000000000045004400000000000000012B
:100B40000001000100202020206162636465666767
:100B500068696A6B6C6D6E6F70717273747576779D
:100B600078797A3132333435363738393052454234
:100B7000545F2D3D5B5D5C233B27602C2E2F202096
:100B80002000000000000000000000000000000045
:100B90000000000000000000000000000000000055
:100BA00000000000007E0F00D4FFFFFFC700000020
:100BB0007800000000000000002A2B280000000040
:100BC00000000000000000000000000029000000FC
:100BD000002C1E3420212224342627252E362D37A2
:100BE00038271E1F202122232425263333362E3773
:100BF000381F0405060708090A0B0C0D0E0F10110B
:100C000012131415161718191A1B1C1D2F31302317
:100C10002D350405060708090A0B0C0D0E0F1011DF
:100C200012131415161718191A1B1C1D2F313035E5
:100C30004C21000011241FBECFEFDAE0DEBFCDBF94
:100C400012E0A0E0B1E0E6EFF3E502C005900D92FE
:100C5000A03AB107D9F726E0A0EAB2E001C01D92A0
:100C6000A13DB207E1F70E940D200C94AC29C8C940
:100C70009093890680938806089590938B068093BD
:100C80008A06089521E030E002C0220F331F8A95C2
:100C9000E2F780918A0690918B06822B932BEDCF01
:100CA00021E030E002C0220F331F8A95E2F7209541
:100CB000309580918A0690918B0682239323DDCF15
:100CC000983090F5863080F5E82FF0E086E0989F28
:100CD000E00DF11D11248E2F877041E001C0440FFB
:100CE0008A95EAF783E0F695E7958A95E1F7EE0FA6
:100CF000FF1FEE0FFF1FE35AF94F20E030E070E0D6
:100D00005191DF01CB01022E02C0969587950A947E
:100D1000E2F7817081958527842385278E932F5F45
:100D20003F4F2430310561F70895983078F58630CB
:100D300068F5E82FF0E086E0989FE00DF11D1124A2
:100D40009E2F977083E0F695E7958A95E1F7EE0F71
:100D5000FF1FEE0FFF1FE35AF94F40E050E080E025
:100D6000219130E0092E02C0369527950A94E2F7CA
:100D700021703327042E01C0220F0A94EAF7822B38
:100D80004F5F5F4F4430510559F7089580E0089553
:100D90008091910690919006981301C008958F5FFD
:100DA0008770FACF90918C068095892380938C066A
:100DB000282F277021110CC0891751F090918E06B1
:100DC00092FF06C08695869586956ADF10928C06FE
:100DD00008958091850690918F06892B5091860603
:100DE000511591F090914301913021F490918D062D
:100DF00097FD0BC096E024EA32E040E0915048F4C1
:100E0000411110928606852B08959EE12CEA32E06E
:100E1000F4CFF90161919F01611581F34F5FEECF2E
:100E2000982F909580918506892380938506089553
:100E30007830B8F46630A8F48730B0F4E62FF0E0EC
:100E400096E0799FE00DF11D112490E3899FE00D5C
:100E5000F11D1124EE0FFF1FEB55F74F8591959172
:100E6000089580E090E0089581E0FCCF9C01803EF1
:100E7000910509F448C0D8F48133910509F47DC087
:100E800048F48932910509F46DC08A9709F47CC051
:100E9000C90108958933910551F18238910539F1DD
:100EA000C597B1F780918D0685FFF2CF29C0843EAA
:100EB000910509F447C048F4823E910599F1833EBB
:100EC0009105A9F121EE30E0E3CF863E910509F4CA
:100ED00044C0873E9105E1F680918D0683FD61C097
:100EE00090918E0691FF2BC024EE30E0D1CF8091FF
:100EF0008D068370811152C080918E0683FFC8CF0A
:100F000029E230E0C5CF80918D0680FD33C09091FD
:100F10008E0690FFBDCF23EE30E084FFB9CF20E0F6
:100F200030E0B6CF80918D0682FDF5CFB1CF8091B4
:100F30008D0682FD30C090918E0690FD2FC084FFFB
:100F4000A7CFEDCF80918E0681FFA2CF80918D0635
:100F500027EE30E084FDE3CF9BCF80918D0683FDAB
:100F6000F7CF96CF80918D0685FD1EC080918E06AD
:100F700083FF8ECF29E330E08BCF80918D0686FFF3
:100F800087CF2AE230E084CF80918D0686FF80CF24
:100F900021E330E07DCF22EE30E07ACF20EE30E06A
:100FA00077CF26EE30E074CF25E330E071CF90911B
:100FB0008D0692FF10C041E0282F2471243009F0E3
:100FC00040E031E0282F2871283009F030E0431745
:100FD00011F02CE0822793FF10C041E0282F2471EC
:100FE000243109F040E031E0282F2871283109F040
:100FF00030E0431711F02CE0822730918E0630FF4D
:1010000010C051E0282F2171213009F050E041E05B
:10101000282F2871283009F040E0541711F029E0FA
:10102000822731FF10C041E0282F2171213109F0C2
:1010300040E031E0282F2871283109F030E04317D3
:1010400011F029E0822794FF02C083FD877E089576
:101050001F93CF93DF930ADFEC01811522E59207FE
:1010600008F052C0811540E5940708F0CDC0803EDD
:10107000910520F58D3C910508F0A1C0883A9105B5
:1010800070F4853A910508F097C081309105B9F167
:101090000497813A910598F1C0E0D0E030C0885AB9
:1010A00091094B97C8F7C85AD0E0CC0FDD1FCC5C34
:1010B000DD4F0990D881C02DD46421C0811550E442
:1010C0009507B0F4C11580E2D80708F0B3C0C83E58
:1010D000D105A8F0CE019A9581159F41E8F68D2F94
:1010E00066DF182FCE019927C1DEEC01D12B07C096
:1010F0009927BCDECC27DF70C82BD92BD06ACE0154
:10110000DF91CF911F910895803842E59407C8F58B
:10111000803652E5950708F05BC0C03482E5D807F9
:10112000D0F4C03292E5D90708F04BC08C2F8695D9
:10113000869520E2829FC0011124C37021E030E037
:10114000A90102C0440F551FCA95E2F7EA01C82B56
:10115000D92BDD68D4CF8C2F86958695877050E289
:10116000859FC0011124C37021E030E0A90102C0B5
:10117000440F551FCA95E2F7EA01C82BD92BDC684A
:10118000BECF803C52E5950758F48F71C03AD245E6
:10119000A0F590E0982F8827EC01C46FD06AAFCFFC
:1011A000805C9245809708F077CFDC2FCC27CC2746
:1011B000DF71C06FD06AA3CFA497D064A0CFD065F1
:1011C0009ECFCF71D0E0DC2FCC27C16FD06A97CFF4
:1011D00086958695877020E2829FC0011124C37096
:1011E00021E030E0A90102C0440F551FCA95E2F783
:1011F000EA01C82BD92BDA6882CFD9DEC82FD0E01C
:10120000DC2FCC27D0627BCF8F71D1DE93E0CC0F67
:10121000DD1F9A95E1F7CC27DF70282F30E084FF9F
:1012200005C050E1859F900111243327C22BD32B99
:10123000D06965CF8D2F8F71BADE182FCE01992717
:1012400015DEEC01D12BDECFA0E0B0E0EAE2F9E060
:101250000C94E1288C01E0908A06F0908B06809136
:10126000880690918906E82AF92ACFE0D0E0CC24BC
:10127000C394D12CC6010C2E02C0880F991F0A946A
:10128000E2F78E219F21892B49F4219798F7B12C01
:101290008B2DCDB7DEB7E9E00C94FD28BC2EB8014C
:1012A0008C2FC6DDD5DE019781F3F2CF0F931F930C
:1012B000CF93FC01858100811181811579F0611541
:1012C00069F0C801C1DFC82F682FC801F9DCB80177
:1012D0008C2FAEDDCF911F910F910895C80125DDB0
:1012E000C82FF5CFCF93DF93D82FC92FADDF6D2F48
:1012F0007C2F9EDDADDEDF91CF910895FC018481CE
:10130000811599F080819181EDDF282F92959F7052
:10131000963099F060F4925F9F70923030F4203FE5
:10132000B1F038F481E0283E38F080E008959A5F0B
:10133000F3CF81E0243FC9F7089591E0213F09F000
:1013400090E081E0283E08F080E0892B089581E05C
:10135000089580E00895F894E82FE295EF70F0E0AA
:1013600041A18F7021E030E0B90102C0660F771F04
:101370008A95E2F7CB01962F9095942391A392A1A1
:10138000892B82A378940895FF920F931F93CF9394
:10139000DF93182F062FF42EC0E0D0E0CE0120916D
:1013A0002C06211103C0CB3108F04B972F2D402F75
:1013B000612F1FD02196C633D10581F7CDB7DEB797
:1013C000E5E00C9401299BE0899F802D1124980F62
:1013D000973308F096E320912C06211104C08B313D
:1013E00028F48BE108959C3108F09BE10895539A0D
:1013F0000895FC01EE0FFF1FE80FF91FE850FD4FA5
:10140000618340832283089580912B06811569F0C2
:10141000E0915306F0915406309739F00190F08135
:10142000E02D309711F00995089580E00895A3E02C
:10143000B0E0EDE1FAE00C94E8289C018091F6021E
:101440009091F70282179307B1F03093F70220933F
:10145000F602E0915306F0915406309761F0008453
:10146000F185E02D309739F083E089833B832A832F
:10147000CE01019609952396E2E00C940429A3E09D
:10148000B0E0E5E4FAE00C94E8289C018091F402D5
:101490009091F50282179307B1F03093F5022093F3
:1014A000F402E0915306F0915406309761F0008405
:1014B000F185E02D309739F084E089833B832A83DE
:1014C000CE01019609952396E2E00C9404299091AF
:1014D0004301913091F0A4EAB2E0EFEF90E02D915A
:1014E000821751F0EF3F19F4211101C0E92F9F5FDE
:1014F0009630A9F7EF3FC9F4089590918D0697FFB4
:10150000EACFE82FE695E695E695803FA8F7F0E06C
:10151000E655FD4F877021E030E001C0220F8A952B
:10152000EAF78281822B828308950E2E000CFF0B36
:10153000EE55FD4FF8CF90914301913021F49091F9
:101540008D0697FD0CC0E4EAF2E09191891302C088
:10155000DF011E9252E0EA3AF507B9F70895E82F45
:10156000E695E695E695803FC8F7F0E0E655FD4F35
:10157000877021E030E0A90102C0440F551F8A9511
:10158000E2F7CA0180959281892382830895809130
:10159000420108952FB7F8946091F0027091F10222
:1015A0008091F2029091F3022FBF0895CF92DF92C3
:1015B000EF92FF9280912B06811551F0EBDF6B01CA
:1015C0007C01C701B601FF90EF90DF90CF900895A6
:1015D000E1DFC0902D06D0902E06E0902F06F0900F
:1015E0003006C60ED71EE81EF91EEBCF87E797E739
:1015F000909301088093000888E19AE00FB6F89470
:10160000A895809360000FBE90936000FFCF08956F
:10161000FC019B018091E6029091E70286179707F3
:1016200040F0672B29F48091E8008E778093E800E2
:10163000C90140E0009741F4411106C08091E800E3
:1016400082FF2FC080E008952091B0032115A9F1F9
:101650002530A9F12091E80023FD2DC02091E8005C
:1016600022FDECCF2091E80020FFE4CF3091F30081
:101670002091F200009719F02830310558F041E030
:101680002830310509F040E02091E8002E772093C2
:10169000E800D0CF41914093F10001972F5F3F4F79
:1016A000E9CF8091B003811541F0853041F0809100
:1016B000E80083FFC3CF81E0089582E0089583E0CE
:1016C00008958091E00287FF13C08091E80082FFB7
:1016D00006C08091E8008B778093E80008958091A0
:1016E000B0038111F2CF08958091B0038115D9F331
:1016F0008091E80080FFF8CF8091E8008E77ECCFF2
:101700002091E4003091E50095E6A9012091EC00DC
:10171000822F817020FF06C08091E80080FF06C004
:1017200080E008952091E80022FD1AC08091B00366
:10173000811589F0853089F08091EB0085FD0FC01F
:101740002091E4003091E50042175307F9F29A9591
:10175000E1F684E0089582E0089583E0089581E051
:101760000895E8EDF0E080818E7F80831092E200A2
:101770001092DA001092E100A0EEB0E08C9181604E
:101780008C9380818F77808319BCA7EDB0E08C911A
:101790008E7F8C9380818F7E80831092DF020895EC
:1017A000FC01AC014C5F5F4F8FEF61E391918927A2
:1017B00028E030E0982F990F87FF09C0892F8627EE
:1017C00021503040B9F7E417F50781F70895892FC4
:1017D000F7CF8091AD0381608093AD030895EDE76D
:1017E000F6E0808191E08927808310924601F1CF55
:1017F00080917D068370811531F0846080937D0631
:1018000010924601E6CF089580917D068370811580
:1018100031F0846080937D0610924601DACF0895FE
:10182000EDE7F6E0248130E1231B08F420E0248377
:10183000D0CFEDE7F6E0248130E1230F08F42FEF5D
:101840002483C7CFE0918206EF3F89F0E53069F04D
:10185000E23019F0E1110DC0E3E0E150F0E0E65BA9
:10186000FE4F808180938206B4CFE1E0F6CFE3E0C3
:10187000F5CFE0E0F3CFE0918206EF3F61F0E53095
:1018800061F0E23061F4EF5FF0E0E65BFE4F8081F3
:10189000809382069ECFE0E0F6CFE1E0F4CFE0E077
:1018A000F3CF90917D069370911551F080937E0651
:1018B00060937F06493708F048E74093800689CF58
:1018C0000895EDE7F6E0818190E04381628108961A
:1018D000E8CFEDE7F6E08181438162818850990B82
:1018E000E0CFEDE7F6E0628120E1620F08F46FEFF0
:1018F0008181438190E0D5CFEDE7F6E0628120E180
:10190000621B08F460E08181438190E0CACFEDE77B
:10191000F6E0438120E1420F08F44FEF81816281BC
:1019200090E0BFCFEDE7F6E0438120E1421B08F4F1
:1019300040E08181628190E0B4CF982F9093E900DC
:10194000891771F07091EC002091ED005091F0003A
:1019500021FD09C09F5F973089F78093E9000895C2
:10196000762F242F50E03091EB003E7F3093EB0038
:101970003091ED003D7F3093ED003091EB00316010
:101980003093EB007093EC002093ED005093F00047
:101990002091EE0027FDDECF0895A0E0B0E0E3ED5A
:1019A000FCE00C94E228C8EDD0E088818F7E88832B
:1019B000E7EDF0E080818160808384E082BF81E098
:1019C0008093DF0288818E7F888302EE10E0F80129
:1019D00010821092DA0081EEC82ED12CF60110820E
:1019E00088818F77888388818068888388818F7DCC
:1019F000888319BC1092B0031092DE021092AF03DC
:101A00001092DD0290EEE92EF12CF70180818B7FA0
:101A1000808388818160888342E060E080E08DDFA0
:101A2000F60180818E7F8083F801808181608083D0
:101A3000808188608083F70180818E7F80838881A8
:101A400080618883CDB7DEB7E8E00C94FE28E09192
:101A500091069091900627E0E91302C080E0089576
:101A6000AE2FB0E02E9FF0011124EE56F94F3181D8
:101A7000361306C03081381303C03581341304C0D7
:101A8000FD013196E770E8CF81E008953BB1377FE3
:101A90002BB128604FB7F89488EF92E0FC010196D3
:101AA000508168E02BB9000000C057FF3BB9550FCB
:101AB000000000C000C000C03BB900C06A9591F7AB
:101AC00053E08A39950751F74FBF8FE594E00197AE
:101AD000F1F700C0000008950F931F93CF93DF9399
:101AE0008B01EA019091B003943051F58093E900A5
:101AF0008FEF9091E80095FD06C095ED9A95F1F76E
:101B000000008A95B1F78091E80085FF19C0F8DDE3
:101B1000811111C08091E80085FD06C08091E80028
:101B20008E778093E800F3CFF80181918F01809345
:101B3000F100219779F78091E8008E778093E80093
:101B4000DF91CF911F910F910895CF93DF93D82FFD
:101B5000C92F48E050E0682F792F81E0BDDF88E091
:101B6000ED2FFC2FA8EEB2E001900D928A95E1F7DF
:101B7000DF91CF910895BC0140E250E082E0ACCF0C
:101B8000BC0143E050E082E0A7CFA0E0B0E0EBEC86
:101B9000FDE00C94E028182F092FB62EA72E7A010D
:101BA0008091D4029AE0C92ED12C8A3018F0CC242E
:101BB000C394D12CC1E0D0E06B2D7A2D812F902FD2
:101BC000F7010995811116C02196CC16DD0694F017
:101BD000CC9FC001CD9F900D900D112420E030E0EE
:101BE00045E34A95F1F700002F5F3F4F281739076B
:101BF000B9F7E2CFCDB7DEB7EAE00C94FC289091BC
:101C00008E0692FB222720F9281771F080FB92F9AB
:101C100090938E0660918D0670918E0684E090E020
:101C20000E94A82982E0BEC80895809143018130B6
:101C300061F580918D0687FF28C0CBD88093AB02D9
:101C400040E250E063E376E08AEA92E00E944C29A9
:101C5000892BD1F080E2EAEAF2E0A3E3B6E001905A
:101C60000D928A95E1F7E0915306F0915406309772
:101C700059F00480F581E02D309731F086E08093B3
:101C8000AA028AEA92E009950895A3D88093A20255
:101C900048E050E065E576E082EA92E00E944C2957
:101CA000892B91F388E0E2EAF2E0A5E5B6E0019045
:101CB0000D928A95E1F7E0915306F0915406309722
:101CC00019F30280F381E02D3097F1F282EA92E07D
:101CD000DACFCF93C82F8115C1F08CEF8C0F813AEA
:101CE00080F580914301813021F480918D0687FD3C
:101CF0000EC0E4EAF2E08191C817F9F022E0EA3A76
:101D0000F207C9F78C2FE3DB90DFCF910895EC2F1A
:101D1000E695E695E695F0E0E655FD4F828190E088
:101D20004C2F477021E030E002C0220F331F4A954C
:101D3000E2F782239323892B29F38C2FFCDB75DFB9
:101D4000E1CF80E28C0F883068F4C77081E090E0CA
:101D500001C0880FCA95EAF7C0918506C82BC093C9
:101D60008506D2CF8BE58C0F833030F42C2F245294
:101D7000330BC9015CDBC9CFC85ACB3130F6EC2F2D
:101D8000F0E0EE0FFF1FE659FD4F8081918177DB78
:101D9000BCCF811501F19CEF980F913A10F4CBDB89
:101DA00044CF90E2980F983048F4877091E001C0DA
:101DB000990F8A95EAF7892F33D8F2CF9BE5980FD0
:101DC000933018F480E090E032CB885A8B3118F4CD
:101DD00080E090E054CB08950F931F93CF93C82FCA
:101DE0008B0177DF0115110531F48C2FD2DFCF91F4
:101DF0001F910F9108958FE99FE00197F1F700C0BF
:101E0000000001501109EECF811531F09091850647
:101E1000892B8093850609CF0895811511F000D88C
:101E200004CF089510928506809143018130A1F47A
:101E300080918D0687FF10C0ECEAF2E08EE1DF01B1
:101E40001D928A95E9F780E090E0F1DA80E090E079
:101E500016DB10928F06E9CEE4EAF2E086E0EFCFDF
:101E6000E1DF2FEF84E39CE0215080409040E1F7D8
:101E700000C0000088E19AE00FB6F894A89580931E
:101E800060000FBE90936000FFCFAAE2B0E0EBE4E9
:101E9000FFE00C94E72880EE92E0FC01019620918F
:101EA000F100208322E0883E9207B9F78091E10299
:101EB000893009F457C0C8F4823009F4B1C08330C6
:101EC00009F481C0813081F18091E80083FFE5C091
:101ED0008091E0029091E1029A3008F0DEC0E92F93
:101EE000F0E0E255F64D0C943D298A3009F488C0A3
:101EF0008B3051F78091E002813231F78091E4021A
:101F00009091E502892B01F78091E800877F80930B
:101F1000E800D7DB81E09091E202911101C080E0FE
:101F2000809343017FDFD0CF8091E002813A61F658
:101F30008091E800877F8093E8008091E40290918F
:101F4000E502892B59F060E080E090E070E060DB12
:101F50008091E8008B778093E800B6CF68E088EE48
:101F600092E0F4CF8091E002813209F0ADCF809110
:101F7000E4029091E502029708F0A6CF8091E80074
:101F8000877F8093E8008091E80082FF17C09091DE
:101F9000F3008091F200029731F48091F1008130DA
:101FA00011F0863021F48091F100809342018091FC
:101FB000E8008B778093E80084DB86CF8091B003C4
:101FC0008111E1CF81CF8091E002813A09F07CCF8D
:101FD0008091E4029091E502892B09F075CF809100
:101FE000E800877F8093E8008091E80080FFFCCFC5
:101FF000809143018093F1008091E8008E77DACFE1
:102000008091E002813209F05FCF8091E800877F04
:102010008093E80056DB8091E3028093410154CF26
:102020008091E002813A09F04FCF8091E800877FEC
:102030008093E8008091E80080FFFCCF809141010F
:10204000D9CF803889F0823841F58091E4028F70D1
:10205000873018F58093E9008091EB0085FB882795
:1020600080F91092E90006C08091AF03880F90912B
:10207000DD02892B9091E800977F9093E800809390
:10208000F1001092F1008091E8008E7723C0811159
:1020900016C08091E202813009F18091E80083FF4F
:1020A0000AC08091E800877F8093E8008091EB0070
:1020B00080628093EB00AA96E3E00C9403298230BF
:1020C00061F78091E202811581F01092E900809120
:1020D000E800877F8093E800F4DADFCF81E0933077
:1020E00009F080E08093AF03F0CF8091E4028F701D
:1020F0002FEF280F263088F68093E9002091EB001F
:1021000020FFE3CF933031F48091EB008062809325
:10211000EB00DBCF9091EB0090619093EB0021E01E
:1021200030E0A90102C0440F551F8A95E2F74093A1
:10213000EA001092EA008091EB008860E8CF8111FC
:10214000ACCF1091E2021F778091E3008078812B61
:102150008093E3008091E800877F8093E800B1DA04
:102160008091E80080FFFCCF8091E300806880933D
:10217000E30083E0111101C082E08093B0038DCFB2
:102180008058823008F089CF2091E2023091E3023A
:102190002C3D53E0350791F583E08A838AE28983F9
:1021A0004FB7F894DE01139620E03EE051E2E32FB2
:1021B000F0E050935700849120FF03C082958F7008
:1021C0003F5F8F708A30C0F0895C90E08D939D9363
:1021D0002F5F243161F74FBF8091E800877F8093A4
:1021E000E8006AE270E0CE01019612DA8091E80020
:1021F0008B778093E80051CF805DE7CF832F9927BD
:102200008330910529F160F48130910509F475C09E
:10221000029709F042CF8BE390E0E1EAF6E02CC0B0
:102220002091E4023091E5028132910509F459C010
:10223000829709F032CF2115310509F468C02130A9
:10224000310509F02ACF8DE690E0E0EFF5E014C00B
:10225000C90199272130A9F182309105D1F1892B4B
:1022600009F01BCFEEE0F7E0E4918E2F90E0EEE076
:10227000F7E0009709F411CF2091E800277F209321
:10228000E8002091E6023091E7028217930708F4F4
:102290009C0140E02115310509F03EC041113CC0D0
:1022A0008091E80082FDA2CF8091B003811509F4EE
:1022B0009DCF853009F49ACF8091E80083FFF0CF5D
:1022C00095CFECEFF6E0E4918E2F90E0ECEFF6E0A6
:1022D000D0CFEEEEF6E0E4918E2F90E0EEEEF6E059
:1022E000C8CF2115310571F02130310509F0D5CE67
:1022F00089E090E0ECECF6E0BFCF82E190E0ECED1D
:10230000F6E0BACF89E090E0E3EBF6E0B5CF84E405
:1023100090E0EDE5F6E0B0CF8091B003811509F4CF
:1023200065CF853009F462CF8091E80083FD5ECFF0
:102330008091E80082FDB4CF8091E80080FFAACFB1
:102340009091F3008091F2002115310519F0883049
:10235000910550F041E0089709F040E08091E800D5
:102360008E778093E80096CF44914093F1003196A8
:10237000215031090196E8CF803809F08ECE809146
:10238000E800877F8093E8008091DE028093F1006F
:102390007ACE811182CE1091E202123008F07DCE09
:1023A0008091E800877F8093E8001093DE0289D94E
:1023B000111599F084E08093B00342E061EC81E074
:1023C000BCDA42E261EC82E0B8DA8091B00384309A
:1023D00051F482E08093440160CE8091E30087FD58
:1023E000E9CF81E0E8CF81E0F5CFCF92DF92EF92A5
:1023F000FF921F93CF93DF9300D000D0CDB7DEB70D
:10240000C0900506D0900606E0900706F0900806FA
:10241000C1D86C197D098E099F0911E064367105D8
:102420008105910568F1C2D8DC01CB010296A11D9E
:10243000B11D89839A83AB83BC83809132019091D3
:1024400033018B5E994F20913101422F50E02530AE
:1024500010F044E050E0BE016F5F7F4F0E945929A9
:1024600083E090E00E945628182F811549F092D8F9
:1024700060930506709306068093070690930806FE
:10248000812F0F900F900F900F90DF91CF911F91A0
:10249000FF90EF90DF90CF9008954F925F926F92F0
:1024A0007F928F929F92BF92CF92DF92EF92FF9294
:1024B0000F931F93CF93DF93C82F7B01B42ED52F9B
:1024C000B9016801A8018B2D9D2F0E944C294C0158
:1024D000F70140805180628073805CD8641975096F
:1024E00086099709643671058105910510F48928DC
:1024F00021F10C2F0C2E000C110B88E0C802F0010A
:102500001124E75EFE4F818192818B5E994F20817D
:10251000422F50E0C216D10408F4A6016B2D7D2F86
:102520000E945929C8010E945628811539F032D8D5
:10253000F701608371838283938381E0DF91CF9180
:102540001F910F91FF90EF90DF90CF90BF909F90E1
:102550008F907F906F905F904F9008950F931F938F
:10256000AC0104E010E02AE136E069E076E082E0C8
:1025700094DF1F910F910895A9E0B0E0E2ECF2E141
:102580000C94E62888E0EDE7F6E0DE011196019074
:102590000D928A95E1F7198609E010E022E236E013
:1025A000AE014F5F5F4F61E076E084E076DF299611
:1025B000E4E00C9402298F929F92AF92BF92EF9227
:1025C000FF921F93CF93DF9300D000D00F92CDB72F
:1025D000DEB77B0180E090E00E945628182F81151D
:1025E00009F462C080911C01482F50E0811511F060
:1025F00041E050E060911D0170911E016B5E794FCA
:10260000CE0105960E9459298090110690901206DD
:10261000A0901306B09014060E94CA0A681979099E
:102620008A099B09643671058105910530F486E1BC
:1026300096E0B6D89D818917B9F181E090E00E94BB
:102640005628811509F43EC080912401482F50E09E
:10265000853010F044E050E0609125017091260132
:102660006B5E794FCE0101960E94592986E196E072
:1026700097D89D81891326C00E94CA0A60931106CB
:1026800070931206809313069093140689819A81A1
:10269000AB81BC8180930D0690930E06A0930F062C
:1026A000B093100681E00FC0809116069091170636
:1026B000A0911806B091190689839A83AB83BC83D5
:1026C0001111E4CF80E040910D0650910E0660910B
:1026D0000F0670911006F701408351836283738364
:1026E0000F900F900F900F900F90DF91CF911F914F
:1026F000FF90EF90BF90AF909F908F90089548E02B
:1027000050E067E170E08DE796E00E947F2910922B
:10271000AD030895EDE7F6E085E080838091470101
:1027200090914801A091490181839283A3838FE70F
:1027300084838FEF8583E3CFA0E0B0E0E2EAF3E1AA
:102740000C94DF280E94D60A60939A0370939B032F
:1027500080939C0390939D03D091A2032091460106
:10276000223009F449C1D8F4211121C0109200018E
:1027700060939E0370939F038093A0039093A103A3
:1027800090917D06892F8370811519F0892F869588
:1027900086958093A20381E08093460103C0233095
:1027A00009F433C1CDB7DEB7EBE00C94FB28809180
:1027B0000401D8132CC090917D06937020910301E1
:1027C00030E081E09217130609F480E08093020163
:1027D0008091820690910101981739F08093010150
:1027E00040E060E080E00E94C409D13091F0DF3F1A
:1027F00009F4D2C0D11109C080910201811529F0DC
:1028000040E060E080E00E94C40980E026C081E0F2
:10281000DDCF809100010E94E309982EA92EE0905F
:102820007E06B0907F06E0918006F0E0EE5EF84F05
:10283000B11025C0E491CE2F1E2F0E2FE92CF12CC4
:1028400090912C06AE1411F008F088C081E091152B
:1028500009F49FC0ABE1AA16C0F6909100019F5FFA
:102860009093000181119ECF82E080934601809178
:102870000201811197CFD11195CF83E08DCF0E2D1D
:1028800010E0CB2CD12CE491CE2F26E0E29E7001FB
:1028900011242FEF30E0C701B9010E94C428000FB6
:1028A000111F45E5469FC001479F900D1124081B4D
:1028B000190B402F440F400FC9018C199D096C0161
:1028C000EC9DC001ED9D900D1124192FB49E600167
:1028D0001124CD2CDD24D901AC19BD096D01EC9D6D
:1028E000D001ED9DB00D11246901C41AD108A601D3
:1028F000B49E6001B59ED00C1124CD2CDD242C1982
:102900003D09E29FA001E39F500D1124052F633084
:102910007105D1F02CEFE21623E0F20658F4613095
:102920007105B1F06230710509F088CFC92F152FFC
:102930000E2F84CF6430710571F06630710509F493
:102940007DCF092F1B2F7ACF0B2FC92F1E2F76CFAC
:102950000E2FCB2F73CFC52F092FF8CFF701E651DC
:10296000FE4F8081209101018223811571F0F701D2
:10297000911105C08BE1E816F1040CF07B97212F33
:10298000402F6C2FCF010E94F9099FEFE91AF90A35
:1029900057CFB6E3AB1660CF80919E0390919F0313
:1029A000A091A003B091A1032AE0B695A7959795B1
:1029B00087952A95D1F783709927AA27BB2782305C
:1029C0009105A105B10589F083309105A105B105F7
:1029D00079F040E060E00197A105B10559F464E1A8
:1029E00080E00E94C40982E0D7CE44E160E0F8CFE5
:1029F00044E164E184E1F5CFD093040180917D0648
:102A000083708093030142D838CF8091AD03811148
:102A100076DEC0909E03D0909F03E090A003F090DC
:102A2000A10380912B06811579F00E94CA0A6C19C6
:102A30007D098E099F09603171058105910508F4B2
:102A4000B1CE10924601AECE0E94D60AF0CFAB01B5
:102A500024E630E0BC0188E70E948A269C0181E0E0
:102A6000232B09F080E008958091FF05811561F026
:102A70008091FC05811541F062E070E08EEA90E003
:102A8000E6DF81111092FC0508958091FF05811504
:102A9000F1F00E94CA0ADC01CB01805A9541AF4F88
:102AA000BF4F8093F8059093F905A093FA05B09372
:102AB000FB058091FC0581110AC062E070E08CEAA0
:102AC00090E0C5DF811519F081E08093FC05089541
:102AD000CF93DF93682F81E06A3019F06D3029F4CD
:102AE00080E075D0DF91CF9108958091CA039091D5
:102AF000CB0326E0FC01A7EDB2E001900D922A95F0
:102B0000E1F7603E08F458C026E0FC0111922A95D6
:102B1000E9F7C091CA03D091CB0346E050E0BE0173
:102B200087ED92E00E944C299E01245F3340892B5F
:102B300041F1C90145E0969587954A95E1F741E055
:102B400050E0BA0102C0660F771F8A95E2F7CB0109
:102B50006091F6057091F705862B972BB9016B5F95
:102B60007F4FE5E076956795EA95E1F702C0440F5F
:102B7000551F6A95E2F7842B952B9093F705809368
:102B8000F6052A5F3F4F4091CC03642F70E0C901E6
:102B90000E94C428481B463010F4240F311D211513
:102BA00072E0370710F020E030E02C503C4F3093BB
:102BB000CB032093CA0396CFF6E06F9FB001112498
:102BC00060557F4F46E050E00E944329A2CFCF934B
:102BD000382FE091CA03F091CB03E45FF3402091DA
:102BE000CC03622F70E0CF010E94C428281B822FE3
:102BF000311559F066E00E940F29C82FC15010F41A
:102C0000CF91089580E264DFF9CF8E0F9F2F911D41
:102C1000811522E0920710F080E090E08C509C4FEC
:102C20009093CB038093CA03EBCFCF93DF93EC0158
:102C3000FE018491811103C0DF91CF91089548DF97
:102C40002196F6CFF2DF81E0C2CF1F921FB61F920E
:102C500011248F939F93AF93BF938091AE03811103
:102C600013C08091F0029091F102A091F202B09114
:102C7000F3024196A11DB11D8093F0029093F102E1
:102C8000A093F202B093F302BF91AF919F918F9105
:102C90001F901FBE1F9018952FB7F8948091F002D7
:102CA0009091F102A091F202B091F3022FBF08952A
:102CB000CF93DF93EC01F0DF8C1B9D0BDF91CF9165
:102CC0000895EF92FF920F931F93CF93DF93C62F38
:102CD000D42F122F811599F060937B06DDDF90933E
:102CE000D6028093D502C77081E001C0880FCA95D3
:102CF000EAF78AD8CDB7DEB7E6E00C9400298091D8
:102D00007B0668132FC0E090D502F090D602C4DF96
:102D10008E199F09803A910528F500E20D0FCD1715
:102D200099F0C770FF24F3948F2D01C0880FCA95C6
:102D3000EAF773D8083040F48D2F877001C0FF0C7C
:102D40008A95EAF78F2D60D860E070E0812F44D833
:102D5000083080F6D77081E001C0880FDA95EAF775
:102D60005CD8C8CFC77081E001C0880FCA95EAF768
:102D7000F7CFA0E0B0E0EFEBF6E10C94DF287C01A8
:102D8000FC018481811509F446C061E0C7010E94FD
:102D90005609EC01F7018581811509F435C591814A
:102DA0009093780690819093770690E290934501F6
:102DB000D0937606C09375069E013052211530429D
:102DC00078F5F70196819031D8F1FE01FF27ED33B8
:102DD000F10528F4EB5BF44FE491E0934501C03436
:102DE000FEE7DF0731F558DF90937A068093790686
:102DF00080EE0E94690E80918C068770811559F0D3
:102E0000F7018581811539F080918E0682FF03C01C
:102E100082E00E94D206CDB7DEB7EBE00C94FB282F
:102E20009E0130542115304130F5F70196819031E3
:102E300060F6FE01E851FC47E730F10508F424C5CF
:102E400010927B069E0130572332310508F0F1C401
:102E500084E090E00E947A2990938E0680938D06FC
:102E6000FE01E150F047E232F10508F0E7C0E85416
:102E7000F64D0C943D299E013A9521153F4108F4E9
:102E8000A4CF9E01205A324520323105C8F2FE01FE
:102E90009ECF923039F5F801849189010D5F1F4F63
:102EA0000E94690E9801F901849189010F5F1F4FFB
:102EB000811509F4A0CF813009F04BC0F80194913D
:102EC000892F0F5F1F4F913021F7F80184910F5F19
:102ED0001F4F60E570E0893311F060E070E00E9400
:102EE000EC0EE0CF933041F4F801849189010D5F3D
:102EF0001F4F0E94C90ED6CF943091F4F8018491EF
:102F000089010D5F1F4F20E030E09AE0682F605389
:102F1000770BAB016A30710530F02115310581F472
:102F20008111C0CF68CF929FB001939F700D112483
:102F30009A01260F371FF80184910F5F1F4FE6CFCC
:102F4000EFE9FFE03197F1F700C0000021503109AF
:102F5000E4CFE82FF0E0EF54F44F9490282F26951B
:102F60002695269530E0F901EF55F44FC49087700F
:102F7000D12C082E02C0D594C7940A94E2F7C0FA67
:102F8000CC24DD24C0F8F901EF56F44FA490B12C05
:102F9000082E02C0B594A7940A94E2F7A0FAAA24D6
:102FA000BB24A0F8F901EF57F44FC491D0E002C060
:102FB000D595C7958A95E2F7C170DD27C114D10474
:102FC00019F081EE0E94690EA114B10419F086EE89
:102FD0000E94690E60E070E0892D0E94EC0EA11441
:102FE000B10419F086EE0E94C90EC114D10419F083
:102FF00081EE0E94C90ECD2B09F454CF60E070E041
:103000008CE26DCF26E241EE61EE5BDEF4CE27E28C
:1030100045EE65EEFACF26E241EE60EEF6CF27E20E
:1030200045EE64EEF2CF26E241EE62EEEECF27E20D
:1030300045EE66EEEACF28E241E0EBCF80918D06C7
:10304000816080938D0660918D0670918E0684E07C
:1030500090E00E94A8290E94120FCDCE80918E068A
:10306000886080938E06EFCF80918D068260E9CFD5
:1030700080918D068460E5CF80918D068860E1CFD8
:1030800080918E068160EDCF80918E068260E9CFBF
:1030900080918D068061D5CF80918D068062D1CFE1
:1030A00080918D068064CDCF0E94120F80918D0695
:1030B0008068C7CF80918D068C60C3CF80918E06CB
:1030C0008360CFCF80918D068E7FBBCF80918E069F
:1030D000877FC7CF80918D068D7FB3CF80918D067E
:1030E0008B7FAFCF80918D06877FABCF80918E068F
:1030F0008E7FB7CF80918E068D7FB3CF80918D0666
:103100008F7E9FCF80918D068F7D9BCF80918D0686
:103110008F7B97CF0E94120F80918D068F7791CF72
:1031200080918D06837F8DCF80918E068C7F99CF85
:1031300080918D06992782FF939590FB82F990FBF1
:1031400083F97FCF80918E06982F909590FB80F920
:1031500090FB81F986CF90918D06892F8F7B96FF0A
:1031600080646FCF0E94120F90918D06892F97FB7C
:1031700087F9805866CF61E08EE090E00E948E294A
:1031800062CF60E0F9CF90918D06892F8F7E94FFFA
:10319000806157CF90918D06892F8E7F90FF81603F
:1031A00050CF90918E06892F877F93FF886059CFEB
:1031B00089E261C3909185069272FE01E054F8475E
:1031C000EF30F10508F069C0E652F64D0C943D2948
:1031D0009272FE01E052F847EB30F10508F05DC055
:1031E000E751F64D0C943D290E94EF0B04CE91154A
:1031F00099F10E94F80BFFCD911599F10E94690C8D
:10320000FACD911599F10E947C0CF5CD911599F1AB
:103210000E94920CF0CD911599F10E94100CEBCD0B
:1032200080917D068370811102C0109246018091C9
:103230007D068C7F816080937D060E94E90BDBCD4B
:1032400080917D06837081111092460180917D06E8
:103250008C7FF1CF911569F20E94040CCCCD9115B1
:1032600069F20E94610CC7CD911569F20E94710C40
:10327000C2CD911569F20E94870CBDCD911569F2FE
:103280000E94190CB8CD911529F00E94220CB3CDE3
:103290009115D9F30E943B0CAECD9E01205E3245C4
:1032A00020323105A8F4811125C0CF7181E090E072
:1032B0009C0102C0220F331FCA95E2F7E901622F79
:1032C00083E090E00E948E29CE010E94380693CDC3
:1032D0008115C9F1CB353CE7D30759F1CC356CE703
:1032E000D607E1F0CA357CE7D70709F1C1309CE782
:1032F000D90739F1C330ECE7DE07E9F0C115DC4747
:1033000011F50E94120F2FEF34E36CE02150304092
:103310006040E1F700C000000E94F60A80918E062E
:10332000002482FF0394802D0E94FF0D64CD81E074
:10333000FBCF80E0F9CF6FEF7FEF80E090E00E945D
:10334000A8290E94300FF70100811181811509F42D
:103350005BC0C8010E942409C82F682FC8010E94C1
:103360006006B8018C2F0E9418070E942808D82FE9
:10337000C92FF701C580068102950F7080918C06D8
:103380008770811501F1DC2CC114F1F0892F807F49
:10339000803461F080E28D0F8830A8F0892F807E24
:1033A000803221F4D23078F0011569F080918E06D8
:1033B00082FF09C082E00E94D20680918C0687704D
:1033C000DD24D3948111D12C8C2F82958F7088307D
:1033D00009F408C1C8F58430E0F41C2F1F70823056
:1033E00008F443C0C07FC03211F01295107FD11590
:1033F00009F471C0D13009F4BAC0C11409F4C4C0D1
:10340000011509F486C046C0C8010E949506C82F60
:10341000A8CF843009F4C9C0D11409F41AC180912D
:103420008C0680FD16C1F7011582869586958695D6
:103430000E944206C7019DDC80918C068695869588
:1034400086950E94500605C1893009F45BC18A5FE8
:103450008F70823008F7D23F09F065C18C2F8F71D1
:10346000C1105EC10E944206F2C0C03110F0129538
:10347000107FC114B9F0111569F080E28D0F88300A
:1034800010F0D11109C080918506812B80938506AB
:103490000E94150E8D2F2FC080918F06812B809357
:1034A0008F06F6CF8D2F0E94C90E111509F4B4CFE7
:1034B00080E28D0F883010F0D11104C0812F0E945E
:1034C000100706C0109580918F06812380938F0688
:1034D0000E94150EA1CF80918E0682FD16C0C114E8
:1034E00069F0111539F080918506812B809385064E
:1034F0000E94150E80E00E94690E8ECF80E00E942F
:10350000C90E111509F488CFD9CFC114A1F001114A
:1035100004C0812F0E94040F7FCF013009F07CCFBF
:1035200080918606912F9823191709F475CF812B66
:103530008093860671CF01116FCF812F0E940D0FEE
:1035400090918606812F8923811529F0812F8095FE
:1035500089238093860680918706912F9823911561
:1035600009F45ACF109518231093870655CFC1142C
:1035700021F0063008F050CFCCCF053008F04CCF0A
:10358000812F0E940D0F48CF0115D1F3D93349F493
:10359000FFEF27EE33E0F15020403040E1F700C06C
:1035A00000008D2F0E94C90E37CF8C2F86958695EF
:1035B0008370811569F0813009F02ECF8D2F9C2FFB
:1035C0009370C11002C080E090E00E943F0A24CFB7
:1035D0008D2F9C2F9370C11002C080E090E00E945C
:1035E000170A1ACF8C2F8370811146C0C1102FC0CB
:1035F0004D2F429546954770440F440F2D2F2F7045
:1036000030E0042E02C0220F331F0A94E2F780E05C
:1036100090E0D4FF09C08FE090E002C0880F991FAE
:103620004A95E2F780959095C695C695C370C230CD
:10363000D1F0C330A9F04091880650918906C1307D
:1036400069F0822B932B842395230E9438060E94D5
:10365000040A60E0C7010E945609DDCB242B352BFC
:10366000822B932BF2CF822B932B209188063091C3
:10367000890682279327E9CFC11491F1C0FFE7CFD4
:103680004D2F429546954770440F440F2D2F2F70B4
:1036900030E0042E02C0220F331F0A94E2F780E0CC
:1036A00090E0D4FF09C08FE090E002C0880F991F1E
:1036B0004A95E2F780959095C695C695C370C2303D
:1036C000C1F0C33099F040918A0650918B06C13009
:1036D00059F0822B932B842395230E943D06B7CF6C
:1036E000823008F4B4CFCCCF242B352B822B932BF4
:1036F000F4CF822B932B20918A0630918B06822760
:103700009327EBCFCF70C11439F08C2F0E94420663
:103710008D2F0E94040F9BCF8D2F0E940D0F8C2F99
:103720000E94500694CF70F4D03FC9F0D13F91F081
:10373000C11409F455C0011509F44FC08D2F0E9422
:10374000690E85CFD33F19F1D43F91F790918E0642
:1037500092FD2BC08C2F8F71C11411F383CEC11435
:10376000A1F0053008F073CFCF7181E090E0BC018B
:1037700002C0660F771FCA95E2F7EB0180918A06B7
:1037800090918B0686279D27A8CF0630EBCF80E04F
:1037900090E0C11409F4A1CFCF7181E090E002C0A4
:1037A000880F991FCA95E2F798CFC11461F08C2F4A
:1037B0008F7192FF57CE982F990F990F990F9360A1
:1037C00090938C064FCE81E00E94D206023008F41E
:1037D0003ECF82E00E94D2063ACF8C2F8F7142CE2C
:1037E000011579F0D93349F47FEF87EE93E07150FA
:1037F00080409040E1F700C000008D2F0E94C90E6C
:1038000026CF8C2F8F718CCFC0342EE7D207B1F525
:1038100080EE0E94C90EC0917906D0917A063CDAFA
:103820008C1B9D0B803A910508F0E5CA21E33CE032
:103830003ACB90918506C6313CE7D30709F0C8CC56
:103840009A7A81E0911101C080E080937C0685E343
:10385000911101C089E20E94670A0E94150ECBCA2D
:10386000C6316CE7D60709F0A5CC80917C0681159E
:1038700009F49ECC85E30E949B0AEFCFFE01E8513C
:10388000FC47E730F10560F7EC50F64D0C943D290C
:103890008091D006803178F48091CF06811559F05F
:1038A000E0919106209190063091CB064091CA0696
:1038B00057E02E1301C008956E2F70E05E9FF00157
:1038C0001124DF01AE56B94F14968C9114978115CF
:1038D00051F111968C911197831325C08C9184130B
:1038E00022C015968C91159781111DC012968D914D
:1038F0009C91A091CC06B091CD068A1B9B0B803A7F
:10390000910588F48091D0068F7080618093D006F5
:10391000E856F94F80818F70806180838AEC96E051
:1039200028DA0C94C806FB013196E770C2CFADE0EF
:10393000B0E0EDE9FCE10C94DD288C0186E0F801B3
:10394000DE01189601900D928A95E1F7F801F58055
:10395000C4808AEC882E86E0982E7090CE06711076
:103960001FC0C114D1F0F11409F415C1C8010E949F
:103970007E09811509F40FC187E0F801D401019097
:103980000D928A95E1F7F1E0CF1206C08091CA0648
:103990009091CB060E9472097BDFFF24F39453C001
:1039A000E080A280B380D090CF068091CC06909129
:1039B000CD069501281B390BD11409F4B5C0203A66
:1039C000310508F08DC0C11441F39091CB06C18040
:1039D0008091D006803108F056C0C91213C0909172
:1039E000CA069E110FC0F11048C08F70806180938D
:1039F000D0068AEC96E0BDD98091D006F801868386
:103A0000F12C21C0F11039C040E06C2D8E2D0E94A8
:103A1000270D40E06C2D8E2D0E94270DF82E811170
:103A2000EFCF888599850E947209292F22952F70E2
:103A3000903470F49F70223098F09115A9F0F8013D
:103A40009681903188F48F2D2D96EDE00C94F92815
:103A50002A5F2F70223060F0C8018BD9FD2CF3CF84
:103A6000911511F0811579F3805E883060F3F4CF01
:103A7000803F48F3815F8330F9CF8091D006816029
:103A80008093D006BDCFC91207C09091CA069E117F
:103A900003C0F11409F469C0C8010E947E098115B0
:103AA00009F479C0F11409F476C08091D00680320F
:103AB00070F02091CA063091CB063A832983BC82EC
:103AC000AB827D821E828F83CE01019652D987E020
:103AD000F801AAECB6E001900D928A95E1F75CCF6F
:103AE0008091D006803148F48AEC96E042D987E094
:103AF000F40111928A95E9F783CFC11409F44DCFEF
:103B00002091CB0691812913C7CF9091CA069E11AF
:103B1000C3CFF110C1CF8683C8012BD987E0F40150
:103B200011928A95E9F739CF203A310500F7C1148F
:103B300009F433CFF11479F19091CB068181981378
:103B400020C08091CA068E111CC08091D00680FDD5
:103B50000FC0803168F08683807F803F39F0868196
:103B6000982F907F905F8F70892B8683C80101D931
:103B700087E0F801AAECB6E001900D928A95E1F792
:103B80000CCFC8010E947E098111A1CF8091D0067F
:103B900081608093D006C801ECD8FFCEABE1B0E0E5
:103BA000E4EDFDE10C94E6284E8B5F8B688F798FF6
:103BB0008A8F192F9B8F911110928F061D8A86E094
:103BC000FE017696DE011F9601900D928A95E1F72F
:103BD0000A8D011561F00B8B1C8B61E0CE010F96F5
:103BE0000E94560961E0CE010F960E9456090B8B88
:103BF0001C8B87E0FE013F96DE01189601900D9226
:103C00008A95E1F7CE01089692DE811128C02091B5
:103C100090063091910687E0FE013896DE011196FC
:103C200001900D928A95E1F78C858115C1F0822F64
:103C300090E001968770992738171906D9F097E018
:103C4000929FD0011124AE56B94FFE0131960190DA
:103C50000D929A95E1F7809390060E94C80617E0AE
:103C60008091910690919006891312C06B96E4E0C2
:103C70000C9402290E94120F109290061092910645
:103C800087E0EAECF6E0DF011D928A95E9F7E7CFDD
:103C9000189FC00111248E56994F49DE811531F3CA
:103CA0008091910690E00196877099278093910604
:103CB000D7CFA6E0B0E0EFE5FEE10C94E6280E9445
:103CC0004C168C0180913106909132068017910735
:103CD00071F019821A820E944C16BC0149815A81E6
:103CE00080E090E05BDF1093320600933106269669
:103CF000E4E00C940229ACE0B0E0E1E8FEE10C94D1
:103D0000D928FE01319688E0DF011D928A95E9F7F6
:103D100080E2E82E82E0F82E8F0194E2692E92E094
:103D2000792E2F01AA24A394B12C3AE2832E32E0FB
:103D3000932EF70181917F018F3F09F43EC0F894E3
:103D4000E82FE295EF70F0E021A18F70A50102C08D
:103D5000440F551F8A95E2F7CA01922F982B91A321
:103D600092A18095892382A3789400C0E4E2F2E0D6
:103D700031E0312C21912F3F79F0A22FA295AF7025
:103D8000A05EB0E08C9190E02F7002C09595879571
:103D90002A95E2F780FF88C080E0382A330F8E161C
:103DA0009F0641F7F70182918F3F11F00E94AB0906
:103DB00050EA5A95F1F7D8013C920F5F1F4F6E14ED
:103DC0007F0409F0B6CF48E050E0B20183EA93E007
:103DD0000E944C296C01892B41F088E0F201A3EA92
:103DE000B3E001900D928A95E1F70091AC0310E0E9
:103DF0000F541C4FC114D10409F458C081E08093C2
:103E0000D3020E944C169093D2028093D1028091EB
:103E10002B06811509F4A5C07E01B9E0EB0EF11C5B
:103E200084E0F70111928A95E9F78091D4028A30F3
:103E300008F060C04BED52E1B701C8010E94C50D0A
:103E4000811509F47CC04EEA52E1B701C8010E9415
:103E5000C50D811509F473C045EF51E1B701C801E3
:103E60000E94C50D811509F46AC04CEB52E1B701FF
:103E7000C8010E94C50D811509F461C01092D402D9
:103E80008091AB0390E044E050E0B7018F549C4F29
:103E90000E944C2921E02093D002892B09F041C0D7
:103EA0002C96E1E10C94F528832F77CF8091D302F3
:103EB000811509F4ACCFE090D102F090D2020E94BB
:103EC0004C168E199F09059708F4A1CF44E050E0E5
:103ED00063EA73E0C8010E944C29892B41F084E019
:103EE000E3EAF3E0D80101900D928A95E1F7109290
:103EF000D3028DCFC090CE02D090CF020E944C163C
:103F00008C199D09843F914008F094CF8091D00294
:103F1000811531F284E0D7011D928A95E9F710925C
:103F2000D002E091AB03F0E0EF54FC4F89859A8515
:103F3000AB85BC8580839183A283B383B1CF80910D
:103F4000D4028F3F39F40E944C169093CF02809395
:103F5000CE02DCCF8F5F8093D4028A3008F490CFFA
:103F6000F2CFE090AB03F12CF701EF54FC4F7F014F
:103F7000F80180819181A281B3818093160690938C
:103F80001706A0931806B093190686E196E00E94E2
:103F9000D00B8093150680911A0690911B06A09174
:103FA0001C06B0911D06F70180839183A283B38321
:103FB000C0901E06D0901F06E0902006F0902106CB
:103FC0008091CA029091CB02A091CC02B091CD0217
:103FD000C816D906EA06FB06B1F0C092CA02D09212
:103FE000CB02E092CC02F092CD020E94CA0AC61A1D
:103FF000D70AE80AF90AC0922D06D0922E06E0925E
:104000002F06F092300688E0E2E2F6E0ADE7B6E097
:1040100001900D928A95E1F743CFCDB7DEB729978E
:104020000FB6F894DEBF0FBECDBF85B7806885BFE1
:1040300085B7806885BF84B7877F84BF0FB6F89443
:10404000A895809160008861809360001092600064
:104050000FBE80E890E00FB6F894809361009093D3
:1040600061000FBE81E08093440189EA99E090935A
:10407000A1028093A0020E94B10B0E94CD0C8091FE
:10408000E20084608093E20078948091B00381150F
:1040900099F08091E9001091EC008F70179511272D
:1040A0001795182B1092E9008091E80083FD0E947B
:1040B000450F1F701093E90082E084BD93E095BD29
:1040C0009AEF97BD80936E0010922D0610922E06E7
:1040D00010922F06109230068091D8008061809354
:1040E000D8002AE12A95F1F700C08091D900182F55
:1040F000117080FD04C00E94B10B1092B0031093A8
:104100002B0610932C06109305011111EAD680910D
:1041100005018091050191E08927880F880F809320
:10412000AC0394E0981B9093AB0384E90E94AB0925
:1041300086E60E94AB0987E90E94AB0986EC0E94E3
:10414000AB0904E212E0D8018D918D018F3F11F08F
:104150000E94AB09B2E00A321B07A9F788E0E1EB45
:10416000F3E0DF01282F1D922A95E9F7E3EAF3E057
:10417000DF011D928A95E9F780E090E00E947A299C
:10418000833E9E4F71F163EE7EEF80E090E00E94EF
:10419000A82960E082E090E00E948E2981E090E012
:1041A000909389068093880661E083E090E00E9406
:1041B0008E2960E074E184E090E00E94A8290E94CA
:1041C0008A1340E050E0BA018FE090E00E94A029FD
:1041D00040E050E0BA0183E190E00E94A0290E94F3
:1041E0007F1382E090E00E9472298093C10384E0F3
:1041F00090E00E947A2990938E0680938D067BDD55
:10420000EFEFF6E721E0E150F0402040E1F700C099
:10421000000071DDE0912C0611E0E127EE0FEE0FBA
:10422000F0E0EF54FC4F808181FF08C06FEF7FEF1B
:1042300080E090E00E94A8290E94F60A83E090E0C6
:104240000E94722990E00E9438060E94F70910939C
:10425000AD0348E050E067E170E08DE796E00E9432
:1042600062291092AD0380917D06843010F40E9483
:104270008A1380912B0691E08927880F8093F4059B
:1042800080E88093CC03C6D46BE070E089E298E0CC
:104290000E942715811509F43FC08091F40565E05F
:1042A00070E081FDC4C084E298E00E94271581156A
:1042B00099F16DE070E082E198E00E942715811588
:1042C00059F10E94CA0ADC01CB01805A9541AF4FD7
:1042D000BF4F8093F8059093F905A093FA05B0932A
:1042E000FB05E4EFF3E080E092E0DF019C011D922A
:1042F00021503040E1F7F093CB03E093CA038FEFF6
:104300009FEF9093F7058093F60581E08093FF057A
:104310008093FC051092F50580912B06811101C058
:10432000E3D586E091E09093540680935306CC2425
:10433000C394D12C8091B00310E400E1B2E1FB2ED4
:10434000853009F4CFC0D7DCF2ECAF2EF3E0BF2EFE
:10435000A1EB8A2EA3E09A2ED401F50191918D91C3
:1043600033E0EA3CF30709F4C7C09817B9F320908B
:104370002B06E9EBEE2EE3E0FE2E712CD4016D90BE
:104380004D01F50141905F01461409F444C04624F3
:1043900000E010E055245394842D8521811599F176
:1043A000362C3520211409F1D7018C9190E096012B
:1043B000002E02C0220F331F0A94E2F782239323B8
:1043C000892B99F409837A820E944C169C838B83F3
:1043D000B1E0BD8391E0311001C090E09E8349813E
:1043E0005A816B817C818D81D9DB31100CC0C60173
:1043F000002E01C0880F0A94EAF7982F9095F701D4
:10440000808189238083550C0F5F1F4F0630110573
:1044100019F6F50162927394FFEFEF1AFF0A28E094
:104420007212ACCF0E94D60A31E03F8369C08FE19F
:1044300098E03BCF8091B003843039F10E949C1307
:104440000E9434151092AE0388E190E00FB6F89404
:10445000A895809360000FBE1093600083B7817FA2
:10446000846083BF83B7816083BF7894889583B766
:104470008E7F83BF0FB6F894A89580916000886105
:1044800080936000109260000FBE35DCE1EBF3E03A
:10449000A9EBB3E080E021912D9391E0211101C0BF
:1044A00090E0892B29EB33E02E173F07A1F7811508
:1044B000C9F08091AF038115A9F009BDF9BC09B419
:1044C00000FEFDCF8091D8008F7D8093D800809131
:1044D000E00082608093E0008091E00081FDFCCFED
:1044E0000E94120F8091B003853009F4A3CF0E947F
:1044F000120F0E94040A27CF981339CFDADB1F82EC
:104500000E949C138091FF05811509F4AFC00091B2
:10451000FD051091FE050E944C16801B910BC29761
:1045200008F484C00E944C169093FE058093FD050C
:1045300084EF93E09093CB038093CA0380912B0682
:10454000811509F4E5C08DE998E00E9415164091A7
:104550008A0630918B06832F90E028E0311103C04A
:1045600020E0842F932FAC0174E0569547957A95FF
:10457000E1F74115510511F02C5FCA01AC015695C8
:104580004795569547954115510511F02E5FCA0183
:1045900096958795820F823009F480C008F076C026
:1045A000811179C085E998E00E94221680917806F1
:1045B000805D0E9468158AE798E00E941516809138
:1045C0007706805D0E94681586E798E00E941516C0
:1045D00040907506509076068091100190911101DF
:1045E0004816590609F060C08091D303803209F063
:1045F0005BC0EDECF3E08F0181918032E1F3F801D3
:1046000001900020E9F79F012150310979010E1531
:104610001F0508F477C084E798E00E941516809182
:1046200045010E94681581E00E94E7158091F6051A
:104630009091F705892B09F070C08091FC058115D8
:10464000A9F00E94CA0A0091F8051091F90520917D
:10465000FA053091FB05601B710B820B930B6F3FCA
:104660007F4F8F4F9F4710F40E9434152F812111E7
:104670000E9445150E94040A90910006891709F4CA
:1046800059CE809300060E94CA0A54CE833049F066
:104690008CE798E089CF8FE898E086CF89E898E0AA
:1046A00083CF82E898E080CF5092110140921001B0
:1046B00080E28093D303612C712C1092D20332EDEF
:1046C000E32E33E0F32E00E010E0C301B2012AE054
:1046D00030E040E050E0AFD5605D603341F401155B
:1046E000110529F045284628472809F460E2D7013A
:1046F0006E937D0129013A010F5F1F4F05301105AF
:1047000021F777CFD8018D918D010E9468157FCF59
:1047100084E398E00E94151689CF8091FF058115EA
:1047200009F48BCF8091F505811187CF0E94451543
:104730002091F6053091F7052115310509F47DCF5B
:10474000812C882D90E03601082C02C0660C771C65
:104750000A94E2F7A30142235323452B11F48394D7
:10476000F0CF2091F40520FF96C0982D990F990F56
:10477000990F37E0390F80E023E090931401809384
:104780001701309315012093180124E630E047E02B
:1047900050E062E171E088E773D2892B09F04DCFD8
:1047A000B0E28B9E400111248091F40580FF7FC010
:1047B000E4EDF3E080E2DF011D928A95E9F7EEE295
:1047C000F2E0F987E8874AE252E082E3282E82E0AD
:1047D000382E07E0A885B9856D91B987A887FA01B9
:1047E0008191AF01880D992D911D9C012C503C4F5A
:1047F0002901E62FF0E0EC52FC4F80E090E0E02E43
:10480000E81A1C2D082E01C0110F0A94EAF7520174
:1048100070E0D5016D915D0161232E2D271B27705E
:1048200030E0B62F022E01C0BB0F0A94EAF7319593
:10483000219531092770332701C066952A95EAF73B
:104840006B2B2081262B20837F5F783011F7019618
:1048500031968830910599F6E885F9852E163F0640
:1048600009F0B8CF04E610E020E230E044ED53E078
:1048700060E488E795D2892B09F0DFCE60947094CC
:104880008091F6059091F705862197219093F70581
:104890008093F605D2CE9695879596958795282F85
:1048A000982D9295990F90763FE1390F66CFA4012C
:1048B0004C505C4F04E610E020E230E0D9CF789411
:1048C0001F921FB61F9211248F939F93AF93BF9394
:1048D0008091F0029091F102A091F202B091F30266
:1048E0000196A11DB11D8093F0029093F102A09357
:1048F000F202B093F302BF91AF919F918F911F90FD
:104900001FBE1F9018951F920F920FB60F92112481
:104910002F933F934F935F936F937F938F939F93C7
:10492000AF93BF93EF93FF938091E10082FF09C0A3
:104930008091E20082FF05C08091E1008B7F80932F
:10494000E1008091DA0080FF24C08091D80080FFD0
:1049500020C08091DA008E7F8093DA008091D900A8
:1049600080FFA9C080E189BD82E189BD09B400FE54
:10497000FDCF81E08093B0038091DF02811109C0F7
:104980000E94B10B0E94CD0C8091E2008460809364
:10499000E2008091E10080FF1AC08091E20080FF78
:1049A00016C08091E2008E7F8093E2008091E20049
:1049B00080618093E2008091D80080628093D8006B
:1049C00019BC85E08093B00383E08093440180911B
:1049D000E10084FF2FC08091E20084FF2BC080E1C2
:1049E00089BD82E189BD09B400FEFDCF8091D80068
:1049F0008F7D8093D8008091E1008F7E8093E100CD
:104A00008091E2008F7E8093E2008091E2008160DD
:104A10008093E2008091DE02811509F452C084E0A7
:104A20008093B0038091B003843009F052C082E0DB
:104A3000809344018091E10083FF2CC08091E200CB
:104A400083FF28C08091E100877F8093E10082E0AE
:104A50008093B0031092DE028091E1008E7F8093FC
:104A6000E1008091E2008E7F8093E2008091E2007D
:104A700080618093E20042E060E080E00E949D0C53
:104A80008091F00088608093F00081E08093440181
:104A900080934301FF91EF91BF91AF919F918F91CF
:104AA0007F916F915F914F913F912F910F900FBE2A
:104AB0000F901F90189519BC1092B0031092DF024E
:104AC00068CF8091E30087FF02C083E0A9CF81E037
:104AD000A7CF81E0ADCF1F920F920FB60F92112496
:104AE000EF92FF920F931F932F933F934F935F93F8
:104AF0006F937F938F939F93AF93BF93CF93EF93D6
:104B0000FF9309EE10E0F8018081C091EC008F70F6
:104B1000C795CC27C795C82B108280EFE82EF12CC3
:104B2000F7018081877F808378940E94450FF80188
:104B30001082F701808188608083CF70F801C08384
:104B4000FF91EF91CF91BF91AF919F918F917F9105
:104B50006F915F914F913F912F911F910F91FF9016
:104B6000EF900F900FBE0F901F901895FF920F932C
:104B70001F93CF93DF93182FEB011092BC0084EAB0
:104B80008093BC000E944C16082FF92E8091BC0027
:104B900087FF28C08091B900887F883029F08091F4
:104BA000B900887F803199F51093BB0084E8809329
:104BB000BC000E944C16182F092F8091BC0087FF63
:104BC0001EC02091B900287F80E090E0283199F044
:104BD00081E090E0203411F480E090E0919581959F
:104BE000910909C0802F9F2D0E945816C817D90718
:104BF00068F68EEF9FEFCDB7DEB7E5E002C3812FF9
:104C0000902F0E945816C817D907B8F6F2CF8FEF29
:104C10009FEFF1CF1092B9008CE08093B800089517
:104C20000F931F93CF93DF93EB018093BB0084E836
:104C30008093BC000E944C16182F092F8091BC0055
:104C400087FF11C02091B900287F81E090E02832D1
:104C500011F480E090E0919581959109DF91CF91D9
:104C60001F910F910895CF3FDC0741F3812F902FC3
:104C70000E945816C817D90708F78EEF9FEFEECF9E
:104C8000A0E0B0E0E5E4F6E298C2782EB62EA72EBA
:104C90006A01E9010E944C164C01C431D10510F1A2
:104CA000CF3FDC0719F1CE0164E170E06DD2F62E42
:104CB000E72E6F2D7E2D872D59DF8C01892BC9F4AE
:104CC000EB2CFA2CCE0CDF1CEC14FD0419F00115B2
:104CD0001105C9F084E98093BC00C801CDB7DEB7E7
:104CE000EDE087C2FF24F394E12CE3CF85E0F82EBA
:104CF000FBCFCF3FDC07E9F2C4010E945816C8176A
:104D0000D907B8F6DDCFBE01F70181917F0188DFB9
:104D10008C01DACFA0E0B0E0EFE8F6E24EC2782EE8
:104D2000B62EA72E6A0189010E944C164C0104314F
:104D3000110500F10F3F100701F1C80164E170E0B7
:104D400023D2EB01BE01872D11DF7C01892BB9F441
:104D5000CB2DDA2DCC0EDD1ECC15DD0519F0E114BE
:104D6000F104B9F084E98093BC00C701CDB7DEB788
:104D7000EDE03FC2C1E0D0E0E5CFC5E0FCCF0F3FA2
:104D8000100701F3C4010E94581608171907D0F63E
:104D9000DFCFFE018491B80143DF7C012196DCCF97
:104DA000A0E0B0E0E5EDF6E207C2682E962E5A01CB
:104DB000690178010E944C16782E892E0431110564
:104DC00018F10F3F100719F1C80164E170E0DCD160
:104DD000162F072F612F702F862DC8DEEC01892B2F
:104DE000C1F0FFEFEF16FF06A9F3872D982D0E9463
:104DF0005816E816F90670F784E98093BC00CE01D6
:104E0000CDB7DEB7EEE0F4C111E000E0E3CF15E08E
:104E1000FCCFB701892D04DFEC018501CA0CDB1C36
:104E20000C151D0549F3209739F7B701F801819159
:104E30008F01F6DEEC01F4CF8EE14A9B02C08A9529
:104E4000E1F74A9BFECF08955A9880E28A95F1F7E0
:104E50005A9A0895FC013BE03A95F1F798E020E07A
:104E600080E031E040E14A95F1F7880F4A9B02C0AB
:104E70008160232742E04A95F1F7000040E14A951E
:104E8000F1F79A9579F790E19A95F1F799B132E0B7
:104E90003A95F1F7000040E14A95F1F792FB992726
:104EA00090F992272081920F90830895A1E0B0E0BD
:104EB000EBE5F7E289C119828C017C01E60EF11C59
:104EC000BBDFCE010196C6DFF80181938F01EE159D
:104ED000FF05B1F781E09981911180E02196E6E02C
:104EE0008FC1529A5A9A089552985A9AEA9AE9E6C4
:104EF000F0E080818F7C808308956150770B91E092
:104F000001C0990F6A95EAF7692F90E021E06111DD
:104F100008C0911599F05A9A80E28A95F1F75A984B
:104F20000895362F3823311539F05A9A922730E2F6
:104F30003A95F1F76695EBCF5A98F9CF5A98ECCF9E
:104F4000FF920F931F93CF93DF93EC018C01060F19
:104F5000111DF99079DF68E08F2DCFDFC017D107E1
:104F6000C1F7CDB7DEB7E5E04CC11F920F920FB687
:104F70000F9211240F931F932F933F934F935F939F
:104F80006F937F938F939F93AF93BF93EF93FF9311
:104F9000CF93DF930F92CDB7DEB719824DDFCE01ED
:104FA000019658DF082F069506950695982F92953D
:104FB0009570202F2570920F292F23709695969526
:104FC000920F982797708981892B811509F058C015
:104FD000063008F055C080E18A95F1F75A9A529A46
:104FE00082E08A95F1F700C05A9888E0089F800116
:104FF0001124D801A75EBE4F1696ED91FC9117972C
:105000003097A9F0609132027091330214962D917D
:105010003C911597260F371F11968D919C911297F1
:10502000680F791F13964C9113978C910995F8018D
:10503000E75EFE4F6381611549F0209132023091A5
:10504000330284819581820F931F7ADFFDDE80E138
:105050008A95F1F75A9852985A9A80E18A95F1F711
:10506000F801E75EFE4F6081611549F02091320240
:105070003091330281819281820F931F17DFDCDE32
:105080000F90DF91CF91FF91EF91BF91AF919F91E1
:105090008F917F916F915F914F913F912F911F91D0
:1050A0000F910F900FBE0F901F9018950F931F93A5
:1050B000CF93DF938C0106970CF05EC0F894529A60
:1050C0005A9885E08A95F1F70000C02FC695C57003
:1050D000802F8570C80F8C2F8370C695C69593E07E
:1050E000000F111F9A95E1F7C80FC8018C2BEC0136
:1050F000ABDE00C068E08C2F00DF90E19A95F1F7FD
:1051000052985A9A4A9B31C087E090E04A992FC042
:10511000F801E75EFE4F6381611559F0209132027C
:105120003091330284819581820F931FBFDE8115F8
:1051300001F182DE80E28A95F1F75A98529A90E165
:105140009A95F1F7F801E75EFE4F6081611549F02D
:10515000209132023091330281819281820F931F1C
:10516000EFDE72DE789481E008C000C0CBCF0197FB
:1051700049F4529A5A9A789480E0DF91CF911F9126
:105180000F91089500C0C2CFAA1BBB1B51E107C0FD
:10519000AA1FBB1FA617B70710F0A61BB70B881FC7
:1051A000991F5A95A9F780959095BC01CD01089556
:1051B0002F923F924F925F926F927F928F929F9227
:1051C000AF92BF92CF92DF92EF92FF920F931F9315
:1051D000CF93DF93CDB7DEB7CA1BDB0B0FB6F894C6
:1051E000DEBF0FBECDBF09942A88398848885F8406
:1051F0006E847D848C849B84AA84B984C884DF8077
:10520000EE80FD800C811B81AA81B981CE0FD11D5A
:105210000FB6F894DEBF0FBECDBFED0108959927FC
:1052200078E0880F991F961708F0961B881F7A95CB
:10523000C9F780950895A1E21A2EAA1BBB1BFD0198
:105240000DC0AA1FBB1FEE1FFF1FA217B307E40765
:10525000F50720F0A21BB30BE40BF50B661F771FBD
:10526000881F991F1A9469F760957095809590959D
:105270009B01AC01BD01CF010895EE0FFF1F05900A
:10528000F491E02D0994FB01DC0102C005900D9220
:1052900041505040D8F70895FB01DC0104C08D91C6
:1052A0000190801921F441505040C8F7881B990B98
:1052B0000895FB01DC0102C001900D924150504065
:1052C000D8F70895DC01CB01FC01F999FECF06C0A7
:1052D000F2BDE1BDF89A319600B40D9241505040B4
:1052E000B8F70895F999FECF92BD81BDF89A992734
:1052F00080B50895A8E1B0E042E050E0E5CFDC01E0
:10530000A40FB51F4150504040F0CB01840F951FB2
:105310002E9105D041505040D8F70895262FF99985
:10532000FECF92BD81BDF89A019700B4021639F004
:105330001FBA20BD0FB6F894FA9AF99A0FBE0895D5
:105340000396272FECDFEADF252FE9DF242FE7CFB5
:105350000196272FE4DFE2CFF894FFCF211047100A
:105360004D1047104D109F10C0104D10BC11C911A9
:105370006218CA186A18341838186E183C1872184F
:105380007E184818C3184C18821850188618AB1885
:1053900054188A18B2185A18901898184018761885
:1053A00044187A185E189418A218BB18C1182E1841
:1053B0006618D11810192019F418F7182A19FC18B2
:1053C0002F1901193419061939190B193E194319E6
:1053D0004819F418F7182A19FC182F19011934194B
:1053E000061939190B193E190B180F18021807184E
:0653F000131817181B182A
:1053F60000FF00FFFF01C70AA50DBB0D070BC00D7F
:10540600FF000021007F22000300000001000000D1
:105416000000000004010000000405000000000078
:10542600000409000000000000090D000000000053
:105436000000000100200300FF78FF050200181796
:1054460012110A09191613100B081A15140F0C0756
:10545600FFFFFF0E0D0633322D2C252434312E2B63
:10546600262335302F2A2722FFFFFF292821551012
:10547600320D10141026323055345F3F552755151E
:105486005504440244134425503A3C373223320D26
:105496003200210321142125102A101810070007B5
:1054A600001800298B10AE0DD014D026AE308B34E8
:1054B600813F8B278B158B049C029C139C25903A6D
:1054C600A437AE23AE0DAE00BF03BF14BF25D02A4E
:1054D600D018D007E007E018E02902020202020213
:1054E600010404040404040101040404040404047F
:1054F600040401010102020202020201040404047E
:105506000404010104040404040404040401010164
:10551600946697C6F4F5F6F731330008101818109C
:1055260008001506E200E900EA00B500B600B7007B
:10553600CD008301CC008A0192019401210223024D
:1055460024022502260227022A02B300B4006F00B5
:1055560070009F01CB019F02A002E200E900EA0071
:10556600B500B600B700CD008301CC008A019201D8
:1055760094012102230224022502260227022A027E
:10558600B300B4006F0070009F01CB019F02A00220
:00000001FF
