:100000000C941A060C9437060C9437060C94EC27C3
:100010000C9437060C9437060C9437060C9437066C
:100020000C9437060C9437060C94A2240C948A2561
:100030000C940B160C9437060C9437060C94370668
:100040000C9437060C9437060C9437060C9437063C
:100050000C9437060C947E240C9437060C943706C7
:100060000C9437060C9437060C9437060C9437061C
:100070000C9437060C9437060C9437060C9437060C
:100080000C9437060C9437060C9437060C943706FC
:100090000C9437060C9437060C9437060C943706EC
:1000A0000C9437060C9437060C94370600AF00AE5C
:1000B0000000000000003E5B4F5B3E003E6B4F6B5C
:1000C0003E001C3E7C3E1C00183C7E3C18001C5729
:1000D0007D571C001C5E7F5E1C0000183C18000051
:1000E000FFE7C3E7FF00001824180000FFE7DBE785
:1000F000FF0030483A060E00262979292600407F65
:1001000005050700407F05253F005A3CE73C5A00A3
:100110007F3E1C1C0800081C1C3E7F0014227F220E
:1001200014005F5F005F5F0006097F017F000066CB
:1001300089956A0060606060600094A2FFA29400EC
:1001400008047E04080010207E20100008082A1CE5
:100150000800081C2A0808001E10101010000C1EB1
:100160000C1E0C0030383E383000060E3E0E0600E5
:1001700000000000000000005F0000000007000712
:100180000000147F147F1400242A7F2A12002313F6
:10019000086462003649562050000008070300003A
:1001A000001C224100000041221C00002A1C7F1C70
:1001B0002A0008083E080800008070300000080887
:1001C0000808080000006060000020100804020019
:1001D0003E5149453E0000427F4000007249494976
:1001E00046002141494D33001814127F1000274565
:1001F000454539003C4A4949310041211109070070
:10020000364949493600464949291E000000140074
:1002100000000040340000000008142241001414C3
:1002200014141400004122140800020159090600A8
:100230003E415D594E007C1211127C007F494949B4
:1002400036003E41414122007F4141413E007F490D
:10025000494941007F09090901003E4141517300AC
:100260007F0808087F0000417F4100002040413F97
:1002700001007F08142241007F40404040007F027F
:100280001C027F007F0408107F003E4141413E0078
:100290007F09090906003E4151215E007F091929A5
:1002A000460026494949320003017F0103003F40CF
:1002B00040403F001F2040201F003F4038403F008B
:1002C0006314081463000304780403006159494D62
:1002D0004300007F4141410002040810200000411A
:1002E00041417F00040201020400404040404000C0
:1002F0000003070800002054547840007F2844443D
:100300003800384444442800384444287F00385496
:100310005454180000087E0902001824241C780098
:100320007F080404780000447D4000002040403DE8
:1003300000007F102844000000417F4000007C0442
:10034000780478007C080404780038444444380079
:100350007C1824241800182424187C007C08040429
:10036000080048545454240004043F4424003C40F2
:1003700040207C001C2040201C003C4030403C00C1
:100380004428102844004C9090907C004464544CC5
:1003900044000008364100000000770000000041E2
:1003A000360800000201020402003C2623263C001D
:1003B000000000000000000000000000000000003D
:1003C000C0E0F0F8F81800C0F0FCFEFFFFFFFFFFF0
:1003D000FFFF7E00000000000000000080C0E0E0A1
:1003E000E0E0E0E0E0E0C0800000000080C0E0E08D
:1003F000E0E0E0E0E0E0C080000000E0E0C0C0E05D
:10040000E0E0E00000E0E0C0C0E0E0E0E0E0C0806C
:100410000000000080C0E0E0E0E0E0E0E0E0C0805C
:100420000000000000000000000000000000E0F0FC
:10043000F0F0E0ECEEF7F37020007C7C7C7E007E38
:100440007E7E7F7F7F000080C0E07E5B4F5BFEC0D2
:100450000000C000DCD7DEDEDED7DC00C00000001C
:10046000000000000000000000000000000000008C
:10047000000000000000000000F8FCFEFFE000FFAC
:10048000FFFFFFFFFF80FFFFFFFFFFFFFFFFFF1FDB
:100490000701000000000000000000FFFFFF8100D6
:1004A000000000000081C3C3C30000FFFFFF810004
:1004B000000000000081FFFFFF0000FFFFFF0100C0
:1004C0000000000000FFFFFF010000000001FFFF2F
:1004D000FF0000FFFFFF9D1C1C1C1C1C1C9DDFDF80
:1004E000DF000000000000000000000000000F1FFF
:1004F0003F7F7F7F7F7F3F1E0C001F1F1F3F003FFE
:100500003F3F7F7F7F00307B7F7830202030787FB7
:100510003B0003000F7F0F0F0F7F0F000300000051
:1005200000000000000000000000000000000000CB
:10053000000000000000000000030F1F3F3F3F3F8E
:100540001F1F3F3F7F7F7F3F3F1F3F7F7F7F7F7C1E
:100550007878381C0F000000000000000103070736
:10056000070707070707030100000000010307074B
:100570000707070707070301000000070707000038
:100580000000000000070707000000000000070748
:100590000700000001030707070707070707030114
:1005A000000000000000000000000000000000004B
:1005B000000000000000000000000000000000003B
:1005C000000000000000000000000000000000002B
:1005D000000000000000000000000000000000001B
:1005E000000000000000000000000000000000000B
:1005F00005010980A101850319012AB7001501260B
:10060000B700950175108100C0050C0901A1018595
:100610000419012AA002150126A002950175108176
:1006200000C005010906A1018506050719E029E7B3
:10063000150025019508750181020507190029EFAC
:100640001500250195F0750181020508190129059C
:10065000950575019102950175039101C005010988
:1006600006A101050719E029E71500250195087580
:100670000181029501750881010507190029FF15FF
:100680000026FF0095067508810005081901290557
:1006900015002501950575019102950175039101DC
:1006A000C009023B00020100A0FA09040000010396
:1006B0000101000921110100012244000705810305
:1006C00008000109040100010300000009211101D3
:1006D0000001226D000705820320000112010002C3
:1006E00000000008534601000100010200010C0354
:1006F00043006F0072006E0065000000100366008A
:100700006F006F007300740061006E00000004034E
:1007100009040001010101010101010102020202BB
:10072000020202020203030303030303030404049B
:100730000404040405050505050606060606070764
:1007400007070708080808090909090A0A0A0B0B1C
:100750000B0C0C0C0D0D0D0E0E0E0F0F0F101011BB
:100760001111121213131414151516161717181841
:1007700019191A1A1B1B1C1D1D1E1E1F20202122A9
:1007800022232424252626272829292A2B2C2D2DEF
:100790002E2F30313232333435363738393A3B3C0C
:1007A0003D3E3F404142434445464748494A4C4DFF
:1007B0004E4F50515354555658595A5B5D5E5F61C8
:1007C0006264656668696B6C6D6F7072737577785B
:1007D0007A7B7D7E8082838587888A8C8E8F9193B9
:1007E0009596989A9C9EA0A2A3A5A7A9ABADAFB1E0
:1007F000B3B5B7BABCBEC0C2C4C6C9CBCDCFD1D4C5
:10080000D6D8DBDDDFE2E4E7E9EBEEF0F3F5F8FA6A
:10081000FDFF00DA0281FFD9F1DB20A4A62EAF0094
:10082000A0C0D30000A1C8D30000AED580A81F404F
:100830008D142000808182838485868788898A8BB5
:100840008C8D8E8F9091929394A0A1A2A3A4A5A623
:10085000A7A8A9AAABACADAEAFB0B1B2B3B4C0C19A
:10086000C2C3C4C5C6C7C8C9CACBCCCDCECFD0D1F0
:10087000D2D3D4003A002C206B007800556E64650A
:10088000660041646A757374005261697365004C57
:100890006F7765720044656661756C74004C6179B0
:1008A00065723A2000000014001A000800150017B5
:1008B00000000004211622070009000A0000001DA4
:1008C000001B00060019000500000000000000E702
:1008D0000021522C240000130012000C0018001CF0
:1008E00000000034210F320E000D000B0000003814
:1008F000003700360010001100000000000000E684
:100900000029421E7C0000290036023500370257BC
:10091000000000407E23026700210225020000380B
:100920000224021F0222020000000000000000E377
:100930000001002C0000002A00300235022F023195
:100940000200003302270256002602200200003176
:100950000030002D022F003300000000000000E6F0
:1009600000235228120000290000000000000000AF
:100970000000001E001F2220002100220000002491
:1009800052000000000000000000000000000026EF
:100990005223522B0000002A00000000000000003B
:1009A0000000002700260025002400230000003856
:1009B000003700360000000000000000000000E6E4
:1009C00000010028000000290050044F14AE000070
:1009D000000000E0004A224E004D00000000000030
:1009E000001B13061319135001000000000000E360
:1009F0000001002C0000004C002B112B134B0005B4
:100A0000520000E4004F325200510050000000A894
:100A100000A900AA00BD00BE00000000000000E622
:100A20000001001E7C00000000000000000000002B
:100A300000000000000000000000000000000000B6
:100A400000000000000000000000000000000000A6
:100A50000001002C0000000000610060005F000049
:100A600000000000005E005D005C0000000000006F
:100A7000005B005A00590000000000000000006305
:100A80000062005800000029000000000000000083
:100A90000000004C001E001F00200024000000E1A8
:100AA0000000000000000000000000000000000046
:100AB0000000002C0000002A0000000000000000E0
:100AC00052000000004F00520050000000000000E3
:100AD00000000051000000000000000000000000C5
:100AE00000000028000000000000000000000000DE
:100AF0000000003A003B003C003D003E00000000CA
:100B000000000000000000000000000000000001E4
:100B100000010001000000000000000000000000D3
:100B200000000043004200410040003F0000000080
:100B3000000000000045004400000000000000012B
:100B40000001000100202020206162636465666767
:100B500068696A6B6C6D6E6F70717273747576779D
:100B600078797A3132333435363738393052454234
:100B7000545F2D3D5B5D5C233B27602C2E2F202096
:100B80002000000000000000000000000000000045
:100B90000000000000000000000000000000000055
:100BA00000000000007E0F00D4FFFFFFC700000020
:100BB0007800000000000000002A2B280000000040
:100BC00000000000000000000000000029000000FC
:100BD000002C1E3420212224342627252E362D37A2
:100BE00038271E1F202122232425263333362E3773
:100BF000381F0405060708090A0B0C0D0E0F10110B
:100C000012131415161718191A1B1C1D2F31302317
:100C10002D350405060708090A0B0C0D0E0F1011DF
:100C200012131415161718191A1B1C1D2F313035E5
:100C30004C21000011241FBECFEFDAE0DEBFCDBF94
:100C400012E0A0E0B1E0E8E8F4E502C005900D9202
:100C5000AC39B107D9F726E0ACE9B2E001C01D928A
:100C6000A43CB207E1F70E94FD1F0C94F7290C94F5
:100C7000000090937C0680937B06089590937E06F7
:100C800080937D06089521E030E002C0220F331FDB
:100C90008A95E2F780917D0690917E06822B932BB8
:100CA0000E943E06089521E030E002C0220F331F6B
:100CB0008A95E2F72095309580917D0690917E0689
:100CC000822393230E943E060895983090F5863043
:100CD00080F5E82FF0E086E0989FE00DF11D1124EB
:100CE0008E2F877041E001C0440F8A95EAF783E0B8
:100CF000F695E7958A95E1F7EE0FFF1FEE0FFF1FC0
:100D0000E15BF94F20E030E070E05191DF01CB0171
:100D1000022E02C0969587950A94E2F7817081951C
:100D20008527842385278E932F5F3F4F24303105FD
:100D300061F70895983078F5863068F5E82FF0E08F
:100D400086E0989FE00DF11D11249E2F977083E09F
:100D5000F695E7958A95E1F7EE0FFF1FEE0FFF1F5F
:100D6000E15BF94F40E050E080E0219130E0092E56
:100D700002C0369527950A94E2F721703327042E96
:100D800001C0220F0A94EAF7822B4F5F5F4F443075
:100D9000510559F7089580E0089580918406909157
:100DA0008306981301C008958F5F8770FACF9091E2
:100DB0007F068095892380937F06282F2770211135
:100DC0000DC0891759F09091810692FF07C0869552
:100DD000869586950E94530610927F06089580910D
:100DE000780690918206892B50917906511591F0E1
:100DF00090914301913021F49091800697FD0BC0B2
:100E000096E020EA32E040E0915048F4411110921F
:100E10007906852B08959EE128EA32E0F4CFF901A6
:100E200061919F01611581F34F5FEECF982F9095EF
:100E30008091780689238093780608957830B8F4F5
:100E40006630A8F48730B0F4E62FF0E096E0799FA2
:100E5000E00DF11D112490E3899FE00DF11D112497
:100E6000EE0FFF1FEB55F74F85919491089580E0A9
:100E700090E0089581E0FCCF9C01803E910509F44B
:100E800048C0D8F48133910509F47DC048F4893213
:100E9000910509F46DC08A9709F47CC0C9010895D1
:100EA0008933910551F18238910539F1C597B1F730
:100EB0008091800685FFF2CF29C0843E910509F418
:100EC00047C048F4823E910599F1833E9105A9F10E
:100ED00021EE30E0E3CF863E910509F444C0873E21
:100EE0009105E1F68091800683FD61C090918106B5
:100EF00091FF2BC024EE30E0D1CF8091800683702B
:100F0000811152C08091810683FFC8CF29E230E071
:100F1000C5CF8091800680FD33C09091810690FFFF
:100F2000BDCF23EE30E084FFB9CF20E030E0B6CF74
:100F30008091800682FDF5CFB1CF8091800682FD41
:100F400030C09091810690FD2FC084FFA7CFEDCFD8
:100F50008091810681FFA2CF8091800627EE30E04C
:100F600084FDE3CF9BCF8091800683FDF7CF96CFA2
:100F70008091800685FD1EC08091810683FF8ECF03
:100F800029E330E08BCF8091800686FF87CF2AE26D
:100F900030E084CF8091800686FF80CF21E330E06F
:100FA0007DCF22EE30E07ACF20EE30E077CF26EE14
:100FB00030E074CF25E330E071CF9091800692FF4E
:100FC00010C041E0282F2471243009F040E031E0C6
:100FD000282F2871283009F030E0431711F02CE059
:100FE000822793FF10C041E0282F2471243109F09B
:100FF00040E031E0282F2871283109F030E0431714
:1010000011F02CE082273091810630FF10C051E0B2
:10101000282F2171213009F050E041E0282F28715C
:10102000283009F040E0541711F029E0822731FF01
:1010300010C041E0282F2171213109F040E031E05A
:10104000282F2871283109F030E0431711F029E0EA
:10105000822794FD877E08951F93CF93DF930E948C
:101060003C07EC01811522E5920708F055C0811577
:1010700040E5940708F0D1C0803E910520F58D3CF5
:10108000910508F0A4C0883A910570F4853A91055D
:1010900008F09AC081309105D1F10497813A910509
:1010A000B0F1C0E0D0E033C0885A91094B97C8F73F
:1010B000C85AD0E0CC0FDD1FC05DDD4F0990D8814C
:1010C000C02DD46424C0811550E49507C0F4C11527
:1010D00080E2D80708F0B7C0C83ED105C0F0CE0105
:1010E0009A9581159F41E8F68D2F0E94DD07182FF4
:1010F000CE0199270E943C07EC01D12B08C099270B
:101100000E943C07CC27DF70C82BD92BD06ACE01B8
:10111000DF91CF911F910895803842E59407C8F57B
:10112000803652E5950708F05BC0C03482E5D807E9
:10113000D0F4C03292E5D90708F04BC08C2F8695C9
:10114000869520E2829FC0011124C37021E030E027
:10115000A90102C0440F551FCA95E2F7EA01C82B46
:10116000D92BDD68D4CF8C2F86958695877050E279
:10117000859FC0011124C37021E030E0A90102C0A5
:10118000440F551FCA95E2F7EA01C82BD92BDC683A
:10119000BECF803C52E5950758F48F71C03AD245D6
:1011A000A0F590E0982F8827EC01C46FD06AAFCFEC
:1011B000805C9245809708F074CFDC2FCC27CC2739
:1011C000DF71C06FD06AA3CFA497D064A0CFD065E1
:1011D0009ECFCF71D0E0DC2FCC27C16FD06A97CFE4
:1011E00086958695877020E2829FC0011124C37086
:1011F00021E030E0A90102C0440F551FCA95E2F773
:10120000EA01C82BD92BDA6882CF0E94DD07C82FEC
:10121000D0E0DC2FCC27D0627ACF8F710E94DD071F
:1012200093E0CC0FDD1F9A95E1F7CC27DF70282FD4
:1012300030E084FF04C050E1859F90011124C22B4F
:10124000D32BD06964CF8D2F8F710E94DD07182FAB
:10125000CE0199270E943C07EC01D12BDCCFA0E006
:10126000B0E0E5E3F9E00C9424298C01E0907D06E0
:10127000F0907E0680917B0690917C06E82AF92A00
:10128000CFE0D0E0CC24C394D12CC6010C2E02C0F8
:10129000880F991F0A94E2F78E219F21892B49F428
:1012A000219798F7B12C8B2DCDB7DEB7E9E00C94E0
:1012B0004029BC2EB8018C2F0E941E070E942C08CA
:1012C000019771F3F0CF0F931F93CF93FC018581AA
:1012D00000811181811591F0611581F0C8010E9492
:1012E0002F09C82F682FC8010E946506B8018C2FEE
:1012F0000E941E07CF911F910F910895C8010E946F
:101300009A06C82FF3CFCF93DF93D82FC92F0E940F
:101310002F096D2F7C2F0E941E070E942C08DF9141
:10132000CF910895FC0184818115A1F08081918184
:101330000E948309282F92959F70963099F060F44F
:10134000925F9F70923030F4203FB1F038F481E02A
:10135000283E38F080E008959A5FF3CF81E0243F83
:10136000C9F7089591E0213F09F090E081E0283E1F
:1013700008F080E0892B089581E0089580E00895C9
:10138000F894E82FE295EF70F0E041A18F7021E032
:1013900030E0B90102C0660F771F8A95E2F7CB01F2
:1013A000962F9095942391A392A1892B82A3789450
:1013B0000895FF920F931F93CF93DF93182F062F5B
:1013C000F42EC0E0D0E0CE0120911E06211103C012
:1013D000CB3108F04B972F2D402F612F0E94590AD7
:1013E0002196C633D10579F7CDB7DEB7E5E00C9489
:1013F00044299BE0899F802D1124980F973308F092
:1014000096E320911E06211104C08B3128F48BE154
:1014100008959C3108F09BE10895EFE6F6E08081A5
:1014200091E0892780831092460180917706816040
:1014300080937706089580916F068370811551F02F
:10144000846080936F0610924601809177068160D8
:1014500080937706089580916F068370811551F00F
:10146000846080936F0610924601809177068160B8
:10147000809377060895EFE6F6E0248130E1230FAC
:1014800008F42FEF2483809177068160809377069C
:101490000895EFE6F6E0248130E1231B08F420E014
:1014A0002483809177068160809377060895539A0C
:1014B0000895FC01EE0FFF1FE80FF91FEC50FD4FE0
:1014C000618340832283089580911D06811559F020
:1014D000E0914506F0914606309729F00190F081A1
:1014E000E02D0995089580E00895A3E0B0E0EBE7D2
:1014F000FAE00C942B299C018091F2029091F30266
:1015000082179307A1F03093F3022093F202E09147
:101510004506F0914606309751F083E089833B837E
:101520002A830084F185E02DCE010196099523964A
:10153000E2E00C944729A3E0B0E0E1EAFAE00C9481
:101540002B299C018091F0029091F1028217930760
:10155000A1F03093F1022093F002E0914506F09162
:101560004606309751F084E089833B832A830084C8
:10157000F185E02DCE01019609952396E2E00C94C9
:10158000472990914301913091F0A0EAB2E0EFEF4A
:1015900090E02D91821751F0EF3F19F4211101C015
:1015A000E92F9F5F9630A9F7EF3FC9F40895909116
:1015B000800697FFEACFE82FE695E695E695803F0F
:1015C000A8F7F0E0EA55FD4F877021E030E001C058
:1015D000220F8A95EAF78281822B828308950E2E4C
:1015E000000CFF0BE256FD4FF8CF90914301913074
:1015F00021F49091800697FD0CC0E0EAF2E0919111
:10160000891302C0DF011E9252E0E63AF507B9F7EE
:101610000895E82FE695E695E695803FC8F7F0E057
:10162000EA55FD4F877021E030E0A90102C0440F68
:10163000551F8A95E2F7CA0180959281892382839A
:1016400008958091420108952FB7F8946091EC02BB
:101650007091ED028091EE029091EF022FBF0895FC
:10166000CF92DF92EF92FF9280911D06811559F083
:101670000E94240B6B017C01C701B601FF90EF9023
:10168000DF90CF9008950E94240BC0901F06D09049
:101690002006E0902106F0902206C60ED71EE81E16
:1016A000F91EEACF0F931F938B019C014FB7F8945B
:1016B0006091EC027091ED028091EE029091EF0248
:1016C0004FBF601B710B820B930B1F910F910895FD
:1016D00087E797E7909301088093000888E19AE0F4
:1016E0000FB6F894A895809360000FBE90936000A9
:1016F000FFCF0895FC019B018091E2029091E302EB
:101700008617970740F0672B29F48091E8008E77C1
:101710008093E800C90140E0009741F4411106C000
:101720008091E80082FF2FC080E008952091AA03F5
:101730002115A9F12530A9F12091E80023FD2DC044
:101740002091E80022FDECCF2091E80020FFE4CFBB
:101750003091F3002091F200009719F02830310504
:1017600058F041E02830310509F040E02091E800D0
:101770002E772093E800D0CF41914093F10001975C
:101780002F5F3F4FE9CF8091AA03811541F085304B
:1017900041F08091E80083FFC3CF81E0089582E0AB
:1017A000089583E008958091DC0287FF13C0809143
:1017B000E80082FF06C08091E8008B778093E80004
:1017C00008958091AA038111F2CF08958091AA0310
:1017D0008115D9F38091E80080FFF8CF8091E8006F
:1017E0008E77ECCF2091E4003091E50095E6A901D9
:1017F0002091EC00822F817020FF06C08091E800CC
:1018000080FF06C080E008952091E80022FD1AC004
:101810008091AA03811589F0853089F08091EB00D1
:1018200085FD0FC02091E4003091E5004217530779
:10183000F9F29A95E1F684E0089582E0089583E054
:10184000089581E00895E8EDF0E080818E7F808347
:101850001092E2001092DA001092E100A0EEB0E0E7
:101860008C9181608C9380818F77808319BCA7EDE8
:10187000B0E08C918E7F8C9380818F7E80831092DC
:10188000DB020895FC01AC014C5F5F4F8FEF61E319
:101890009191892728E030E0982F990F87FF09C0A0
:1018A000892F862721503040B9F7E417F50781F7D3
:1018B0000895892FF7CF90916F069370911571F06D
:1018C0008093700660937106493708F048E74093AB
:1018D0007206809177068160809377060895EFE61F
:1018E000F6E0818190E04381628108960E945B0C62
:1018F0000895EFE6F6E08181438162818850990B7B
:101900000E945B0C0895EFE6F6E0628120E1620F31
:1019100008F46FEF8181438190E00E945B0C089591
:10192000EFE6F6E0628120E1621B08F460E081816D
:10193000438190E00E945B0C0895EFE6F6E043815E
:1019400020E1420F08F44FEF8181628190E00E9414
:101950005B0C0895EFE6F6E0438120E1421B08F4BA
:1019600040E08181628190E00E945B0C0895982F95
:101970009093E900891771F07091EC002091ED00CF
:101980005091F00021FD09C09F5F973089F7809347
:10199000E9000895762F242F50E03091EB003E7F30
:1019A0003093EB003091ED003D7F3093ED003091AE
:1019B000EB0031603093EB007093EC002093ED006E
:1019C0005093F0002091EE0027FDDECF0895A0E0B7
:1019D000B0E0EDEEFCE00C942529C8EDD0E0888164
:1019E0008F7E8883E7EDF0E080818160808384E0F2
:1019F00082BF81E08093DB0288818E7F888302EE44
:101A000010E0F80110821092DA0081EEC82ED12C7D
:101A1000F601108288818F77888388818068888327
:101A200088818F7D888319BC1092AA031092DA02F4
:101A30001092A9031092D90290EEE92EF12CF70131
:101A400080818B7F808388818160888342E060E031
:101A500080E00E94B70CF60180818E7F8083F801C0
:101A6000808181608083808188608083F7018081AC
:101A70008E7F8083888180618883CDB7DEB7E8E080
:101A80000C944129E09184069091830627E0E913A4
:101A900002C080E00895AE2FB0E02E9FF001112427
:101AA000EB57F94F3181361306C03081381303C02C
:101AB0003581341304C0FD013196E770E8CF81E031
:101AC00008953BB1377F2BB128604FB7F89484EF6E
:101AD00092E0FC010196508168E02BB9000000C043
:101AE00057FF3BB9550F000000C000C000C03BB914
:101AF00000C06A9591F753E08639950751F74FBFBB
:101B00008FE594E00197F1F700C0000008950F936E
:101B10001F93CF93DF938B01EA019091AA03943036
:101B200059F58093E9008FEF9091E80095FD06C08C
:101B300095ED9A95F1F700008A95B1F78091E8004C
:101B400085FF1AC00E94F20B811111C08091E8003C
:101B500085FD06C08091E8008E778093E800F2CF83
:101B6000F80181918F018093F100219779F780919D
:101B7000E8008E778093E800DF91CF911F910F915D
:101B80000895CF93DF93D82FC92F48E050E0682FF6
:101B9000792F81E00E94870D88E0ED2FFC2FA4EEC5
:101BA000B2E001900D928A95E1F7DF91CF9108950F
:101BB000BC0140E250E082E00E94870D0895BC0124
:101BC00043E050E082E00E94870D0895A0E0B0E07D
:101BD000ECEEFDE00C942329182F092FB62EA72E2A
:101BE0007A018091D0029AE0C92ED12C8A3018F067
:101BF000CC24C394D12CC1E0D0E06B2D7A2D812F61
:101C0000902FF7010995811116C02196CC16DD069B
:101C100094F0CC9FC001CD9F900D900D112420E039
:101C200030E045E34A95F1F700002F5F3F4F28175A
:101C30003907B9F7E2CFCDB7DEB7EAE00C943F2918
:101C40009091810692FB222720F9281779F080FBDA
:101C500092F990938106609180067091810684E0EC
:101C600090E00E94F12982E00E94D70608958091B9
:101C70004301813059F58091800687FF27C00E947B
:101C8000EF068093A70240E250E065E276E086EA44
:101C900092E00E948F29892BC1F080E2E6EAF2E00F
:101CA000A5E2B6E001900D928A95E1F7E091450634
:101CB000F0914606309749F086E08093A6020480B2
:101CC000F581E02D86EA92E0099508950E94EF06DD
:101CD00080939E0248E050E067E476E08EE992E06F
:101CE0000E948F29892B89F388E0EEE9F2E0A7E4CE
:101CF000B6E001900D928A95E1F7E0914506F091EA
:101D00004606309711F30280F381E02D8EE992E0D0
:101D1000DBCFCF93C82F8115D1F08CEF8C0F813A98
:101D2000A0F580914301813021F48091800687FDE8
:101D300010C0E0EAF2E08191C81709F122E0E63A2A
:101D4000F207C9F78C2F0E94C10A0E94370ECF916B
:101D50000895EC2FE695E695E695F0E0EA55FD4FFF
:101D6000828190E04C2F477021E030E002C0220FCA
:101D7000331F4A95E2F782239323892B19F38C2F83
:101D80000E94F50A0E94370EDDCF80E28C0F88306A
:101D900068F4C77081E090E001C0880FCA95EAF747
:101DA000C0917806C82BC0937806CFCF8BE58C0FF7
:101DB000833038F42C2F2452330BC9010E94750A4A
:101DC000C6CFC85ACB3118F6EC2FF0E0EE0FFF1F4C
:101DD000EA59FD4F808191810E949B0AB8CF8115FD
:101DE00039F19CEF980F913A28F40E94F50A0E946D
:101DF000370E089590E2980F983050F4877091E074
:101E000001C0990F8A95EAF7892F0E941607EFCF34
:101E10009BE5980F933028F480E090E00E94750ACB
:101E20000895885A8B3120F480E090E00E949B0A4C
:101E300008950F931F93CF93C82F8B010E94890E93
:101E40000115110539F48C2F0E94EF0ECF911F91CF
:101E50000F9108958FE99FE00197F1F700C000000E
:101E600001501109EDCF811539F090917806892B39
:101E7000809378060E94370E0895811521F00E9404
:101E800016070E94370E089510927806809143013C
:101E90008130C1F48091800687FF14C0E8EAF2E047
:101EA0008EE1DF011D928A95E9F780E090E00E94C3
:101EB000750A80E090E00E949B0A109282060E94C0
:101EC000370E0895E0EAF2E086E0EBCF0E94440F7F
:101ED0002FEF84E39CE0215080409040E1F700C068
:101EE000000088E19AE00FB6F894A895809360000E
:101EF0000FBE90936000FFCFAAE2B0E0E2E8FFE0FF
:101F00000C942A298CED92E0FC0101962091F100BD
:101F1000208322E0843E9207B9F78091DD02893068
:101F200009F45AC0C8F4823009F4B6C0833009F409
:101F300085C0813091F18091E80083FFEAC08091F3
:101F4000DC029091DD029A3008F0E3C0E92FF0E066
:101F5000E750F64D0C9480298A3009F48CC08B3000
:101F600051F78091DC02813231F78091E00290914B
:101F7000E102892B01F78091E800877F8093E800D8
:101F80000E94D30B81E09091DE02911101C080E0AC
:101F9000809343010E94440FCECF8091DC02813AAE
:101FA00051F68091E800877F8093E8008091E002FD
:101FB0009091E102892B61F060E080E090E070E0B8
:101FC0000E947A0B8091E8008B778093E800B3CF72
:101FD00068E084EE92E0F3CF8091DC02813209F078
:101FE000AACF8091E0029091E102029708F0A3CF7E
:101FF0008091E800877F8093E8008091E80082FF6D
:1020000018C09091F3008091F200029731F4809112
:10201000F100813011F0863021F48091F10080933D
:1020200042018091E8008B778093E8000E94D30BF7
:1020300082CF8091AA038111E0CF7DCF8091DC0215
:10204000813A09F078CF8091E0029091E102892BEA
:1020500009F071CF8091E800877F8093E80080913C
:10206000E80080FFFCCF809143018093F1008091D4
:10207000E8008E77D9CF8091DC02813209F05BCF06
:102080008091E800877F8093E8000E94D30B8091C5
:10209000DF02809341014FCF8091DC02813A09F049
:1020A0004ACF8091E800877F8093E8008091E80024
:1020B00080FFFCCF80914101D8CF803889F08238F1
:1020C00041F58091E0028F70873018F58093E90028
:1020D0008091EB0085FB882780F91092E90006C00B
:1020E0008091A903880F9091D902892B9091E800E3
:1020F000977F9093E8008093F1001092F100809117
:10210000E8008E7723C0811116C08091DE028130F5
:1021100011F18091E80083FF0AC08091E800877F79
:102120008093E8008091EB0080628093EB00AA9698
:10213000E3E00C944629823061F78091DE0281153C
:1021400089F01092E9008091E800877F8093E80091
:102150000E94D30BDECF81E0933009F080E08093C2
:10216000A903EFCF8091E0028F702FEF280F263068
:1021700080F68093E9002091EB0020FFE2CF9330BE
:1021800031F48091EB0080628093EB00DACF909184
:10219000EB0090619093EB0021E030E0A90102C0D8
:1021A000440F551F8A95E2F74093EA001092EA0027
:1021B0008091EB008860E8CF8111ABCF1091DE02F7
:1021C0001F778091E3008078812B8093E3008091DA
:1021D000E800877F8093E8000E94D30B8091E8009D
:1021E00080FFFCCF8091E30080688093E30083E070
:1021F000111101C082E08093AA038BCF80588230F6
:1022000008F087CF2091DE023091DF022C3D53E0B1
:10221000350799F583E08A838AE289834FB7F8947A
:10222000DE01139620E03EE051E2E32FF0E0509310
:102230005700849120FF03C082958F703F5F8F709D
:102240008A30C8F0895C90E08D939D932F5F243194
:1022500061F74FBF8091E800877F8093E8006AE2D2
:1022600070E0CE0101960E947A0B8091E8008B7796
:102270008093E8004ECF805DE6CF832F992783308F
:10228000910529F160F48130910509F476C0029737
:1022900009F03FCF8BE390E0E1EAF6E02DC020911A
:1022A000E0023091E1028132910509F45AC082972F
:1022B00009F02FCF2115310509F469C0213031050E
:1022C00009F027CF8DE690E0E0EFF5E015C0C901F9
:1022D00099272130B1F18230910509F43AC0892B58
:1022E00009F017CFEEE0F7E0E4918E2F90E0EEE0FA
:1022F000F7E0009709F40DCF2091E800277F2093A5
:10230000E8002091E2023091E3028217930708F47B
:102310009C0140E02115310509F03EC041113CC04F
:102320008091E80082FDA1CF8091AA03811509F474
:102330009CCF853009F499CF8091E80083FFF0CFDE
:1023400094CFECEFF6E0E4918E2F90E0ECEFF6E026
:10235000D0CFEEEEF6E0E4918E2F90E0EEEEF6E0D8
:10236000C8CF2115310571F02130310509F0D1CEEA
:1023700089E090E0ECECF6E0BFCF82E190E0ECED9C
:10238000F6E0BACF89E090E0E3EBF6E0B5CF84E485
:1023900090E0EDE5F6E0B0CF8091AA03811509F455
:1023A00064CF853009F461CF8091E80083FD5DCF73
:1023B0008091E80082FDB4CF8091E80080FFAACF31
:1023C0009091F3008091F2002115310519F08830C9
:1023D000910550F041E0089709F040E08091E80055
:1023E0008E778093E80096CF44914093F100319628
:1023F000215031090196E8CF803809F08ACE8091CA
:10240000E800877F8093E8008091DA028093F100F2
:1024100076CE81117ECE1091DE02123008F079CE98
:102420008091E800877F8093E8001093DA020E9491
:10243000D30B1115A9F084E08093AA0342E061EC6C
:1024400081E00E94B70C42E261EC82E00E94B70C8E
:102450008091AA03843051F482E08093440159CEE4
:102460008091E30087FDE7CF81E0E6CF81E0F5CF03
:10247000A4E0B0E0EEE3F2E10C942A296091F705C4
:102480007091F8058091F9059091FA050E94520B20
:1024900011E0643671058105910578F10E94300BD9
:1024A000DC01CB010296A11DB11D89839A83AB8308
:1024B000BC838091320190913301895F994F2091C3
:1024C0003101422F50E0253010F044E050E0BE01D1
:1024D0006F5F7F4F0E949C2983E090E00E949328C9
:1024E000182F811551F00E94240B6093F70570930B
:1024F000F8058093F9059093FA05812F2496E3E07F
:102500000C9446298F929F92BF92CF92DF92EF92C6
:10251000FF920F931F93CF93DF93C82F7B01B42EAD
:10252000D52FB9016801A8018B2D9D2F0E948F29FD
:102530004C01F70160817181828193810E94520B6D
:10254000643671058105910510F4892829F10C2F55
:102550000C2E000C110B88E0C802F0011124E75E7C
:10256000FE4F81819281895F994F2081422F50E0F7
:10257000C216D10408F4A6016B2D7D2F0E949C2960
:10258000C8010E949328811541F00E94240BF70195
:10259000608371838283938381E0DF91CF911F9168
:1025A0000F91FF90EF90DF90CF90BF909F908F9012
:1025B00008950F931F93AC0104E010E02CE036E087
:1025C0006BEF75E082E00E9482121F910F910895D7
:1025D000A9E0B0E0EEEEF2E10C94292988E0EFE604
:1025E000F6E0DE01119601900D928A95E1F71986C9
:1025F00009E010E024E136E0AE014F5F5F4F63EF8A
:1026000075E084E00E9482122996E4E00C9445294A
:10261000EF92FF921F93CF93DF9300D000D00F92E1
:10262000CDB7DEB77B0180E090E00E949328182FA1
:10263000811509F460C080911C01482F50E081157C
:1026400011F041E050E060911D0170911E01695F41
:10265000794FCE0105960E949C29609103067091E6
:10266000040680910506909106060E94520B64367E
:1026700071058105910538F488E096E00E94420CCE
:102680009D818917C1F181E090E00E949328811516
:1026900009F43FC080912401482F50E0853010F0AC
:1026A00044E050E06091250170912601695F794F07
:1026B000CE0101960E949C2988E096E00E94420C7F
:1026C0009D81891326C00E94240B6093030670939A
:1026D0000406809305069093060689819A81AB8152
:1026E000BC818093FF0590930006A0930106B093F0
:1026F000020681E00FC08091080690910906A09122
:102700000A06B0910B0689839A83AB83BC831111AF
:10271000E4CF80E04091FF055091000660910106F2
:1027200070910206F70140835183628373830F9097
:102730000F900F900F900F90DF91CF911F91FF900E
:10274000EF900895A0E0B0E0E8EAF3E10C942129CD
:102750000E94300B609396037093970380939803C5
:102760009093990320916F06D22FD370D11519F051
:10277000D22FD695D69530914601323009F40AC150
:1027800080F4311116C01092000160939A03709387
:102790009B0380939C0390939D0381E0809346016B
:1027A00003C0333009F4FEC0CDB7DEB7ECE00C94C3
:1027B0003D2980910401D8131EC02370409103016C
:1027C00050E081E02417150609F480E080930201AF
:1027D0008091740690910101981739F0809301015E
:1027E00040E060E080E00E94D909D11531F0D1309D
:1027F00071F080E030C081E0E9CF80910201811565
:10280000C1F340E060E080E00E94D909F2CF8091FE
:1028100000010E94F909982EA92EE0907006B09050
:102820007106E0917206F0E0EE5EF84FB11025C03F
:10283000E491CE2F1E2F0E2FE92CF12C90911E0625
:10284000AE1411F008F088C081E0911509F49FC022
:10285000ABE1AA1670F6909100019F5F9093000182
:102860008111A2CF82E08093460180910201811103
:102870009BCFD11199CF83E091CF0E2D10E0CB2CBF
:10288000D12CE491CE2F26E0E29E700111242FEF8F
:1028900030E0C701B9010E940729000F111F45E56B
:1028A000469FC001479F900D1124081B190B402F14
:1028B000440F400FC9018C199D096C01EC9DC001AA
:1028C000ED9D900D1124192FB49E60011124CD2C83
:1028D000DD24D901AC19BD096D01EC9DD001ED9D40
:1028E000B00D11246901C41AD108A601B49E60017B
:1028F000B59ED00C1124CD2CDD242C193D09E29F6E
:10290000A001E39F500D1124052F63307105D1F014
:102910002CEFE21623E0F20658F461307105B1F0B5
:102920006230710509F088CFC92F152F0E2F84CF83
:102930006430710571F06630710509F47DCF092F9F
:102940001B2F7ACF0B2FC92F1E2F76CF0E2FCB2FF9
:1029500073CFC52F092FF8CFF701EA51FE4F8081C1
:10296000209101018223811571F0F701911105C0B9
:102970008BE1E816F1040CF07B97212F402F6C2F90
:10298000CF010E94590A9FEFE91AF90A57CFB6E31F
:10299000AB1660CFD09304012370209303010E94F3
:1029A000610D69CF80917706811551F048E050E0C4
:1029B00067E170E08FE696E00E94C32910927706E7
:1029C00080909A0390909B03A0909C03B0909D03ED
:1029D00080911D06811581F0C501B4010E94520B42
:1029E0006B017C0120E1C216D104E104F10408F47A
:1029F000DBCE10924601D8CE0E94300B6B017C01D9
:102A0000C818D908EA08FB08EDCFAB0124E630E08E
:102A1000BC0188E70E94AF269C0181E0232B09F0CE
:102A200080E008958091F105811569F08091EE05AF
:102A3000811549F062E070E08EEA90E00E94051591
:102A400081111092EE0508958091F1058115F9F03C
:102A50000E94240BDC01CB01805A9541AF4FBF4F40
:102A60008093EA059093EB05A093EC05B093ED05F8
:102A70008091EE0581110BC062E070E08CEA90E07D
:102A80000E940515811519F081E08093EE050895E7
:102A9000CF93DF93682F81E06A3019F06D3031F405
:102AA00080E00E94C815DF91CF9108958091BC030A
:102AB0009091BD0326E0FC01A3EDB2E001900D92E0
:102AC0002A95E1F7603E08F458C026E0FC01119217
:102AD0002A95E9F7C091BC03D091BD0346E050E0D0
:102AE000BE0183ED92E00E948F299E01265E334055
:102AF000892B41F1C90145E0969587954A95E1F703
:102B000041E050E0BA0102C0660F771F8A95E2F7F4
:102B1000CB016091E8057091E905862B972BB901EF
:102B20006B5F7F4FE5E076956795EA95E1F702C028
:102B3000440F551F6A95E2F7842B952B9093E90576
:102B40008093E8052A5F3F4F4091BE03642F70E0F9
:102B5000C9010E940729481B463010F4240F311D7B
:102B6000211572E0370710F020E030E02A513C4F89
:102B70003093BD032093BC0396CFF6E06F9FB00166
:102B8000112460557F4F46E050E00E948629A2CF75
:102B9000CF93382FE091BC03F091BD03E65EF34084
:102BA0002091BE03622F70E0CF010E940729281BED
:102BB000822F311561F066E00E945229C82FC15062
:102BC00010F4CF91089580E20E944815F8CF8E0F3F
:102BD0009F2F911D811522E0920710F080E090E078
:102BE0008A519C4F9093BD038093BC03EACFCF934F
:102BF000DF93EC01FE018491811103C0DF91CF913D
:102C000008950E9448152196F5CF0E94F71581E09E
:102C10000E94C81508951F921FB61F9211248F930A
:102C20009F93AF93BF938091A803811113C08091AC
:102C3000EC029091ED02A091EE02B091EF0241966C
:102C4000A11DB11D8093EC029093ED02A093EE02C2
:102C5000B093EF02BF91AF919F918F911F901FBED4
:102C60001F9018952FB7F8948091EC029091ED0287
:102C7000A091EE02B091EF022FBF08959C014FB7D3
:102C8000F8948091EC029091ED02A091EE02B09147
:102C9000EF024FBF821B930B0895FF920F931F9378
:102CA000CF93DF93C62FD42F122F8115A9F06093F5
:102CB0006D060E9432169093D2028093D102C770A3
:102CC00081E001C0880FCA95EAF70E94330FCDB7A3
:102CD000DEB7E5E00C94442980916D06681332C09C
:102CE0008091D1029091D2020E943E16803A9105C5
:102CF00048F500E20D0FCD17A9F0C770FF24F3943B
:102D00008F2D01C0880FCA95EAF70E943D0F083049
:102D100048F48D2F877001C0FF0C8A95EAF78F2D3C
:102D20000E94330F60E070E0812F0E94190F08307D
:102D300070F6D77081E001C0880FDA95EAF70E943B
:102D40003D0FC5CFC77081E001C0880FCA95EAF773
:102D5000F6CFA0E0B0E0EFEAF6E10C9422297C0186
:102D6000FC018481811509F448C061E0C7010E941B
:102D70006309EC01F7018581811509F414C591817E
:102D800090936A0690819093690690E29093450132
:102D9000D0936806C09367069E01305221153042D9
:102DA00088F5F7019681903108F43CC0FE01FF27B9
:102DB000ED33F10528F4EB5BF44FE491E09345012A
:102DC000C034FEE7DF0739F50E94321690936C0697
:102DD00080936B0680EE0E94890E80917F0687703B
:102DE000811559F0F7018581811539F080918106AF
:102DF00082FF03C082E00E94D706CDB7DEB7EBE0CA
:102E00000C943E299E0130542115304130F5F701D4
:102E10009681903158F6FE01E851FC47E730F10504
:102E200008F41FC510926D069E01305723323105FC
:102E300008F0ECC484E090E00E94BD2990938106E4
:102E400080938006FE01E150F047E232F10508F080
:102E5000C3C0ED5FF54D0C9480299E013A95211574
:102E60003F4108F4A3CF9E01205A3245203231055C
:102E7000C8F2FE019DCF823039F4E6012296FE01B0
:102E800084910E94890EBFC4833039F4E6012296F2
:102E9000FE0184910E94EF0EB6C4843009F0B3C4E1
:102EA000E6012296FE01849120E030E04AE0FE0136
:102EB00031968053990B8A30910568F021153105C0
:102EC00009F4A1C48FE99FE00197F1F700C0000069
:102ED00021503109F3CF429FB001439F700D11245F
:102EE0009C01260F371F8491EF01E1CFE82FF0E01E
:102EF000EF54F44F9490282F26952695269530E090
:102F0000F901EF55F44F0491877010E0082E02C0CC
:102F1000159507950A94E2F701701127F901EF560C
:102F2000F44FA490B12C082E02C0B594A7940A9433
:102F3000E2F7A0FAAA24BB24A0F8F901EF57F44F56
:102F4000C491D0E002C0D595C7958A95E2F7C170CB
:102F5000DD270115110519F081EE0E94890EA114DB
:102F6000B10419F086EE0E94890E60E070E0892DB0
:102F70000E94190FA114B10419F086EE0E94EF0E01
:102F80000115110519F081EE0E94EF0ECD2B29F0ED
:102F900060E070E08CE20E94190FE60134C426E282
:102FA00041EE61EE0E944D1618CF27E245EE65EE28
:102FB000F9CF26E241EE60EEF5CF27E245EE64EE72
:102FC000F1CF26E241EE62EEEDCF27E245EE66EE6E
:102FD000E9CF28E241E0EBCF8091800681608093C9
:102FE0008006609180067091810684E090E00E94E6
:102FF000F1290E94440FF1CE809181068860809370
:103000008106EFCF809180068260E9CF80918006B3
:103010008460E5CF809180068860E1CF8091810651
:103020008160EDCF809181068260E9CF809180063A
:103030008061D5CF809180068062D1CF809180065B
:103040008064CDCF0E94440F809180068068C7CFF6
:10305000809180068C60C3CF809181068360CFCF42
:10306000809180068E7FBBCF80918106877FC7CFFE
:10307000809180068D7FB3CF809180068B7FAFCF0C
:1030800080918006877FABCF809181068E7FB7CFFE
:10309000809181068D7FB3CF809180068F7E9FCFF8
:1030A000809180068F7D9BCF809180068F7B97CF0C
:1030B0000E94440F809180068F7791CF8091800687
:1030C000837F8DCF809181068C7F99CF8091800600
:1030D000992782FF939590FB82F990FB83F97FCF2C
:1030E00080918106982F909590FB80F990FB81F953
:1030F00086CF90918006892F8F7B96FF80646FCF5B
:103100000E94440F90918006892F97FB87F9805881
:1031100066CF61E08EE090E00E94D32962CF60E04C
:10312000F9CF90918006892F8F7E94FF806157CFD1
:1031300090918006892F8E7F90FF816050CF909173
:103140008106892F877F93FF886059CF89E280C3EA
:103150009272FE01E052F847EB30F10508F064C0CE
:10316000EB5DF54D0C948029909178069272FE01EA
:10317000E054F847ED30F10508F056C0E05DF54D3C
:103180000C9480290E940D0A28CE9115B1F10E945D
:103190002B0A23CE9115B1F10E94790C1ECE911508
:1031A000B1F10E94900C19CE9115B1F10E94AA0CB8
:1031B00014CE9115B1F10E94490A0FCE80916F068D
:1031C0008370811102C01092460180916F068C7F3E
:1031D000816080936F068091770681608093770687
:1031E000FCCD80916F068370811110924601809111
:1031F0006F068C7FEECF911551F20E941B0AEDCD28
:10320000911551F20E946F0CE8CD911551F20E9478
:10321000830CE3CD911551F20E949D0CDECD9115EA
:1032200051F20E943B0AD9CD9E01205E32452032E8
:103230003105A8F481112AC0CF7181E090E0FC0132
:1032400002C0EE0FFF1FCA95E2F7EF016E2F83E079
:1032500090E00E94D329CE010E943906BECD81158F
:10326000A9F0CA35FCE7DF0709F49AC008F072C07C
:10327000C1303CE7D30709F491C0C3308CE7D807CD
:1032800009F486C0C115DC4709F475C0F7018581D2
:1032900000811181811509F487C0C8010E942F099E
:1032A000C82F682FC8010E946506B8018C2F0E94A4
:1032B0001E070E942C08D82FC92FF701C580068150
:1032C00002950F7080917F068770811501F1DC2CCB
:1032D000C114F1F0892F807F803461F080E28D0F7E
:1032E0008830A8F0892F807E803221F4D23078F0A7
:1032F000011569F08091810682FF09C082E00E9479
:10330000D70680917F068770DD24D3948111D12C5C
:103310008C2F82958F70883009F438C108F068C00E
:10332000843008F046C01C2F1F70823008F471C032
:10333000C07FC03211F01295107FD11509F49FC0E3
:10334000D13009F4E8C0C11409F4F2C0011509F440
:10335000B4C074C0CB35ECE7DE0721F18091810663
:10336000002482FF0394802DCC35DC4709F08ECFFA
:103370000E94200E8BCF0E94440F2FEF34E38CE08D
:10338000215030408040E1F700C000000E94680BEF
:103390006FEF7FEF80E090E00E94F1290E94660FBE
:1033A00081E0E6CF80E0E4CFC8010E949A06C82FF2
:1033B0007CCF843009F4CDC0D114A9F080917F0670
:1033C00080FD11C0F70115828695869586950E942D
:1033D0004306C7010E94A91680917F0686958695AF
:1033E00086950E94530660E0C7010E94630905CDDF
:1033F000893009F456C18A5F8F708230E8F6D23F77
:1034000009F060C18C2F8F71C11059C10E94430611
:10341000F2C0C03110F01295107FC114B9F011152F
:1034200069F080E28D0F883010F0D11109C08091D1
:103430007806812B809378060E94370E8D2F2FC03F
:1034400080918206812B80938206F6CF8D2F0E9479
:10345000EF0E111509F4B0CF80E28D0F883010F017
:10346000D11104C0812F0E94160706C010958091CB
:1034700082068123809382060E94370E9DCF809121
:10348000810682FD16C0C11469F0111539F08091D2
:103490007806812B809378060E94370E80E00E9488
:1034A000890E8ACF80E00E94EF0E111509F484CFB7
:1034B000D9CFC114A1F0011104C0812F0E94330F94
:1034C0007BCF013009F078CF80917906912F982336
:1034D000191709F471CF812B809379066DCF0111F3
:1034E0006BCF812F0E943D0F90917906812F892308
:1034F000811529F0812F8095892380937906809109
:103500007A06912F9823911509F456CF1095182318
:1035100010937A0651CFC11421F0063008F04CCF39
:10352000CCCF053008F048CF812F0E943D0F44CF0B
:103530000115D1F3D93349F4FFEF27EE33E0F15011
:1035400020403040E1F700C000008D2F0E94EF0EB8
:1035500033CF8C2F869586958370811569F08130E5
:1035600009F02ACF8D2F9C2F9370C11002C080E0EC
:1035700090E00E949B0A20CF8D2F9C2F9370C1104A
:1035800002C080E090E00E94750A16CF8C2F8370F5
:10359000811142C0C1102FC04D2F429546954770F2
:1035A000440F440F2D2F2F7030E0042E02C0220F45
:1035B000331F0A94E2F780E090E0D4FF09C08FE067
:1035C00090E002C0880F991F4A95E2F78095909588
:1035D000C695C695C370C230B1F0C33089F0409132
:1035E0007B0650917C06C13049F0822B932B8423BB
:1035F00095230E9439060E94640ADECE242B352BC7
:10360000822B932BF6CF822B932B20917B0630912C
:103610007C0682279327EDCFC11491F1C0FFEBCF39
:103620004D2F429546954770440F440F2D2F2F7014
:1036300030E0042E02C0220F331F0A94E2F780E02C
:1036400090E0D4FF09C08FE090E002C0880F991F7E
:103650004A95E2F780959095C695C695C370C2309D
:10366000B9F0C33091F040917D0650917E06C13093
:1036700051F0822B932B842395230E943E06BBCFCF
:10368000823070F6B8CF242B352B822B932BF5CFBD
:10369000822B932B20917D0630917E0682279327E3
:1036A000ECCFCF70C11439F08C2F0E9443068D2FC0
:1036B0000E94330FA0CF8D2F0E943D0F8C2F0E94B0
:1036C000530699CF70F4D03FC9F0D13F91F0C114A7
:1036D00009F455C0011509F44FC08D2F0E94890EC1
:1036E0008ACFD33F19F1D43F91F79091810692FD93
:1036F0002BC08C2F8F71C11411F388CEC114A1F08F
:10370000053008F078CFCF7181E090E0FC0102C075
:10371000EE0FFF1FCA95E2F7EF0180917D069091B1
:103720007E068E279D27A9CF0630EBCF80E090E064
:10373000C11409F4A2CFCF7181E090E002C0880FDC
:10374000991FCA95E2F799CFC11461F08C2F8F7140
:1037500092FF5CCE982F990F990F990F93609093D9
:103760007F0654CE81E00E94D706023008F443CF92
:1037700082E00E94D7063FCF8C2F8F7147CE011574
:1037800079F0D93349F4FFEF27EE33E0F1502040D0
:103790003040E1F700C000008D2F0E94EF0E2BCFCC
:1037A0008C2F8F718CCFC0342EE7D20709F053C015
:1037B00080EE0E94EF0E80916B0690916C060E9445
:1037C0003E16803A910508F008CB81E3C82E8CE0C4
:1037D000D82EF6018491811509F4FFCA813009F0D1
:1037E00085CBE6012196FE018491813009F043CB1F
:1037F0002196FE01849160E570E0893311F060E06C
:1038000070E00E94190F21966E01E3CF9091780627
:10381000C6313CE7D30709F09BCC9A7A81E091113D
:1038200001C080E080936E0685E3911101C089E2BA
:103830000E94C10A0E94370ED0CAC6319CE7D90740
:1038400009F092CC80916E06811509F47FCC85E356
:103850000E94F50AEFCFFE01E851FC47E730F10581
:1038600060F7E35CF54D0C9480298091C3068031AC
:1038700078F48091C206811559F0E0918406209178
:1038800083063091BE064091BD0657E02E1301C05D
:1038900008956E2F70E05E9FF0011124DF01AB5799
:1038A000B94F14968C911497811561F111968C91F2
:1038B0001197831327C08C91841324C015968C9183
:1038C000159781111FC012968D919C91A091BF06F2
:1038D000B091C0068A1B9B0B803A910598F48091A9
:1038E000C3068F7080618093C306E557F94F8081CE
:1038F0008F70806180838DEB96E00E94A9160E94F4
:10390000CD060895FB013196E770C0CFADE0B0E081
:10391000ECE8FCE10C9420298C0186E0F801DE0142
:10392000189601900D928A95E1F7F801F580C48010
:103930008DEB882E86E0982E7090C106711020C005
:10394000C114D9F0F11409F41CC1C8010E949209F4
:10395000811509F416C187E0F801D40101900D9298
:103960008A95E1F7F1E0CF1206C08091BD069091F3
:10397000BE060E9483090E94351CFF24F39454C0A4
:10398000E080A280B380D090C2068091BF06909163
:10399000C0069501281B390BD11409F4BAC0203A8E
:1039A000310508F090C0C11441F39091BE06C1806A
:1039B0008091C306803108F058C0C91214C090919C
:1039C000BD069E1110C0F1104AC08F7080618093B7
:1039D000C3068DEB96E00E94A9168091C306F801FC
:1039E0008683F12C21C0F1103AC040E06C2D8E2D61
:1039F0000E94420D40E06C2D8E2D0E94420DF82E4B
:103A00008111EFCF888599850E948309292F2295FE
:103A10002F70903470F49F702230A0F09115B1F0A7
:103A2000F8019681903190F48F2D2D96EDE00C9455
:103A30003C292A5F2F70223068F0C8010E94A91625
:103A4000FD2CF2CF911511F0811571F3805E883055
:103A500058F3F3CF803F40F3815F8330F9CF8091FB
:103A6000C30681608093C306BCCFC91207C0909182
:103A7000BD069E1103C0F11409F46CC0C8010E9478
:103A80009209811509F47DC0F11409F47AC080917E
:103A9000C306803278F02091BD063091BE063A838D
:103AA0002983BC82AB827D821E828F83CE010196E8
:103AB0000E94A91687E0F801ADEBB6E001900D92E7
:103AC0008A95E1F758CF8091C306803150F48DEB91
:103AD00096E00E94A91687E0F40111928A95E9F711
:103AE00080CFC11409F449CF2091BE0691812913DA
:103AF000C5CF9091BD069E11C1CFF110BFCF868377
:103B0000C8010E94A91687E0F40111928A95E9F78D
:103B100034CF203A3105F8F6C11409F42ECFF11450
:103B200081F19091BE068181981321C08091BD06DC
:103B30008E111DC08091C30680FD10C0803170F0D1
:103B40008683807F803F39F08681982F907F905FB9
:103B50008F70892B8683C8010E94A91687E0F8011F
:103B6000ADEBB6E001900D928A95E1F706CFC80162
:103B70000E94920981119ECF8091C306816080933B
:103B8000C306C8010E94A916F8CEABE1B0E0EBEC89
:103B9000FDE10C9429294E8B5F8B688F798F8A8F7A
:103BA000192F9B8F9111109282061D8A86E0FE01CB
:103BB0007696DE011F9601900D928A95E1F70A8DA7
:103BC000011539F00B8B1C8B61E0CE010F960E9422
:103BD00063090B8B1C8B87E0FE013F96DE01189674
:103BE00001900D928A95E1F7CE0108960E94861CFD
:103BF000811128C0209183063091840687E0FE0160
:103C00003896DE01119601900D928A95E1F78C8528
:103C10008115C1F0822F90E001968770992738179F
:103C20001906D9F097E0929FD0011124AB57B94FF4
:103C3000FE01319601900D929A95E1F780938306EB
:103C40000E94CD0617E08091840690918306891327
:103C500012C06B96E4E00C9445290E94440F109228
:103C600083061092840687E0EDEBF6E0DF011D92FB
:103C70008A95E9F7E7CF189FC00111248B57994F18
:103C80000E94861C811529F38091840690E001969C
:103C90008770992780938406D6CFA6E0B0E0E3E54D
:103CA000FEE10C9429290E9432168C018091230692
:103CB000909124068017910779F019821A820E9448
:103CC0003216BC0149815A8180E090E00E94C51DF6
:103CD00010932406009323062696E4E00C944529CD
:103CE000ACE0B0E0E6E7FEE10C941C29FE01319661
:103CF00088E0DF011D928A95E9F78CE1E82E82E0E9
:103D0000F82E8F0190E2692E92E0792E2F01AA24DD
:103D1000A394B12C36E2832E32E0932EF7018191E9
:103D20007F018F3F09F43EC0F894E82FE295EF70D1
:103D3000F0E021A18F70A50102C0440F551F8A95A4
:103D4000E2F7CA01922F982B91A392A18095892323
:103D500082A3789400C0E0E2F2E031E0312C2191BE
:103D60002F3F79F0A22FA295AF70A05EB0E08C91AA
:103D700090E02F7002C0959587952A95E2F780FF15
:103D800087C080E0382A330F8E169F0641F7F7016F
:103D900082918F3F11F00E94C00950EA5A95F1F7C5
:103DA000D8013C920F5F1F4F6E147F0409F0B6CF0D
:103DB00048E050E0B2018EE993E00E948F296C0147
:103DC000892B41F088E0F201AEE9B3E001900D9259
:103DD0008A95E1F70091A70310E005551C4FC11427
:103DE000D10409F457C081E08093CF020E943216BB
:103DF0009093CE028093CD0280911D06811509F427
:103E0000A0C07E01B9E0EB0EF11C84E0F701119235
:103E10008A95E9F78091D0028A3008F05DC048E0C9
:103E200053E1B701C8010E94E60D811509F477C07E
:103E300049ED52E1B701C8010E94E60D811509F470
:103E40006EC048E352E1B701C8010E94E60D81153A
:103E500009F465C048EE52E1B701C8010E94E60DC1
:103E6000811509F45CC01092D0028091A60390E005
:103E700044E050E0B70185559C4F0E948F2921E016
:103E80002093CC02892BE9F52C96E1E10C9438299A
:103E9000832F78CF8091CF02811509F4ADCF809127
:103EA000CD029091CE020E943E16059708F4A4CF51
:103EB00044E050E06EE973E0C8010E948F29892B2D
:103EC00041F084E0EEE9F3E0D80101900D928A958B
:103ED000E1F71092CF0290CF8091CA029091CB026D
:103EE0000E943E16843F914008F099CF8091CC0209
:103EF000811551F284E0D7011D928A95E9F710925D
:103F0000CC02E091A603F0E0E555FC4F89859A8547
:103F1000AB85BC8580839183A283B383B5CF809129
:103F2000D0028F3F39F40E9432169093CB028093D7
:103F3000CA02DCCF8F5F8093D0028A3008F495CF1D
:103F4000F2CFE090A603F12CF701E555FC4F7F017D
:103F5000F80180819181A281B381809308069093BA
:103F60000906A0930A06B0930B0688E096E00E942B
:103F7000420C8093070680910C0690910D06A0914B
:103F80000E06B0910F06F70180839183A283B3835D
:103F9000C0901006D0901106E0901206F090130623
:103FA0008091C6029091C702A091C802B091C90247
:103FB000C816D906EA06FB06B1F0C092C602D09236
:103FC000C702E092C802F092C9020E94240BC61AEE
:103FD000D70AE80AF90AC0921F06D0922006E0929A
:103FE0002106F092220688E0E4E1F6E0AFE6B6E0D2
:103FF00001900D928A95E1F747CFCDB7DEB72B97A9
:104000000FB6F894DEBF0FBECDBF85B7806885BF01
:1040100085B7806885BF84B7877F84BF0FB6F89463
:10402000A895809160008861809360001092600084
:104030000FBE80E890E00FB6F894809361009093F3
:1040400061000FBE81E0809344018EEB99E0909374
:104050009D0280939C020E94230C0E94E70C809199
:10406000E20084608093E20078948091AA03811535
:1040700099F08091E9001091EC008F70179511274D
:104080001795182B1092E9008091E80083FD0E949B
:104090007C0F1F701093E90082E084BD93E095BD12
:1040A0009AEF97BD80936E0010921F061092200623
:1040B00010922106109222068091D8008061809390
:1040C000D8002AE12A95F1F700C08091D900182F75
:1040D000117080FD04C00E94230C1092AA0310935B
:1040E0001D0610931E061093050111110E94A527AD
:1040F000809105018091050191E08927880F880F43
:104100008093A70394E0981B9093A60384E90E94F0
:10411000C00986E60E94C00987E90E94C00986ECB2
:104120000E94C00900E212E0B6E2EB2EB2E0FB2EE4
:10413000D8018D918D018F3F11F00E94C009E016CA
:10414000F106B1F788E0EBEAF3E0DF01282F1D92DA
:104150002A95E9F7EEE9F3E0DF011D928A95E9F788
:1041600080E090E00E94BD29853E9E4F09F461C029
:1041700065EE7EEF80E090E00E94F12960E082E051
:1041800090E00E94D32981E090E090937C06809398
:104190007B0661E083E090E00E94D32960E074E157
:1041A00084E090E00E94F12960E086E090E00E94C7
:1041B000D32960E087E090E00E94D32940E050E0FE
:1041C000BA0188E090E00E94E52960E083E290E097
:1041D0000E94D32960E08CE090E00E94D32960E047
:1041E0008DE090E00E94D32919821A821B821C82E2
:1041F0001D821E821F82188648E050E067E170E051
:10420000CE0101960E94C32940E050E0BA018FE13F
:1042100090E00E94E52940E050E0BA018FE090E094
:104220000E94E52940E050E0BA0183E190E00E945D
:10423000E52982E090E00E94B5298093B30384E0F1
:1042400090E00E94BD2990938106809380060E9491
:10425000701EEFEFF6E721E0E150F0402040E1F77B
:1042600000C000000E94701EE0911E0611E0E127D0
:10427000EE0FEE0FF0E0E555FC4F808181FF08C0A6
:104280006FEF7FEF80E090E00E94F1290E94680BC1
:1042900083E090E00E94B52990E00E9439060E94D8
:1042A000570A1093770648E050E067E170E08FE628
:1042B00096E00E94A5291092770680916F068430BF
:1042C000F8F485E080936F06809147019091480152
:1042D000A09149018093700690937106A093720695
:1042E0008FE7809373068FEF8093740648E050E069
:1042F00067E170E08FE696E00E94C329109277068E
:1043000080911D0691E08927880F8093E60580E85B
:104310008093BE030E942A266BE070E089E298E059
:104320000E940515811509F43FC08091E60565E0FE
:1043300070E081FDA0C084E298E00E94051581151F
:1043400099F16DE070E082E198E00E940515811519
:1043500059F10E94240BDC01CB01805A9541AF4FEB
:10436000BF4F8093EA059093EB05A093EC05B093C3
:10437000ED05E6EEF3E080E092E0DF019C011D92A6
:1043800021503040E1F7F093BD03E093BC038FEF81
:104390009FEF9093E9058093E80581E08093F10514
:1043A0008093EE051092E70580911D06811102C0F1
:1043B0000E94A82786E091E09093460680934506E8
:1043C000AAE08A2E912CA12CB12C8091AA0310E492
:1043D00002E1853009F488C00E94701E04EB13E0EE
:1043E000FBEAEF2EF3E0FF2ED701F80191918D91BA
:1043F0002CEB33E02E173F0709F480C09817B1F378
:1044000030901D06D12CD701CD907D01F80141904F
:104410008F014C1439F14C24712C55245394852D63
:1044200084218115C1F03114B1F07982DA820E94C1
:1044300032169C838B83F1E0FD8391E0852D8C21E6
:10444000811101C090E09E8349815A816B817C81FA
:104450008D810E94C51D7394550C26E07212DFCF2A
:10446000F801C292D39438E0D312CDCF0E94300B22
:10447000FF24F39448C08FE198E05FCF8091AA03B6
:10448000843039F10E94A2130E9412151092A803E1
:1044900088E190E00FB6F894A895809360000FBE75
:1044A0001093600083B7817F846083BF83B781608E
:1044B00083BF7894889583B78E7F83BF0FB6F894B7
:1044C000A8958091600088618093600010926000E0
:1044D0000FBE0E94701EEBEAF3E081918111F2C1E0
:1044E00093E0E33BF907C9F78091AA03853009F40B
:1044F000C5CF0E94440F0E94640A6ECF981380CFEC
:104500000E944D1EF12C0E94A2138091F10581158D
:1045100009F4ADC08091EF059091F0050E943E1620
:10452000C29708F484C00E9432169093F0058093DD
:10453000EF0586EE93E09093BD038093BC038091DA
:104540001D06811509F4E3C08DE998E00E94F71576
:1045500040917D0630917E06832F90E028E0311156
:1045600003C020E0842F932FAC01E4E056954795DB
:10457000EA95E1F74115510511F02C5FCA01AC0134
:1045800056954795569547954115510511F02E5F63
:10459000CA0196958795820F823009F47FC008F092
:1045A00075C0811178C085E998E00E940516809158
:1045B0006A06805D0E9448158AE798E00E94F71518
:1045C00080916906805D0E94481586E798E00E9408
:1045D000F715409067065090680680911001909101
:1045E00011014816590609F05FC08091C503803259
:1045F00009F05AC0EFEBF3E08F0181918032E1F3D3
:10460000F80101900020E9F79F012150310969016B
:104610000C151D0508F475C084E798E00E94F71595
:10462000809145010E94481581E00E94C815809143
:10463000E8059091E905892B09F06EC08091EE059F
:104640008115A9F00E94240B0091EA051091EB0559
:104650002091EC053091ED05601B710B820B930BE3
:104660006F3F7F4F8F4F9F4710F40E941215F1103C
:104670000E9424150E94640A9091F205891709F49A
:10468000A4CE8093F2050E94240B9FCE833049F084
:104690008CE798E08ACF8FE898E087CF89E898E0A8
:1046A00084CF82E898E081CF5092110140921001AE
:1046B00080E28093C503612C712C1092C40354ECEA
:1046C000C52E53E0D52E00E010E0C301B201A501D4
:1046D00094010E945E29605D603341F4011511056B
:1046E00029F045284628472809F460E2D6016E9350
:1046F0006D0129013A010F5F1F4F0530110529F7A0
:1047000079CFD8018D918D010E94481581CF84E326
:1047100098E00E94F7158BCF8091F105811509F47F
:104720008DCF8091E705811189CF0E9424152091BA
:10473000E8053091E9052115310509F47FCF10E036
:10474000812F90E044244394512C012E02C0440C4C
:10475000551C0A94E2F7A20142235323452B11F47E
:104760001F5FEECF2091E60520FF99C0912F990F92
:10477000990F990F37E0390F80E023E090931401EF
:1047800080931701309315012093180124E630E03F
:1047900047E050E062E171E088E70E946026892BE3
:1047A00009F04CCFB0E21B9FA00111248091E605D7
:1047B00080FF81C0E6ECF3E080E2DF011D928A9584
:1047C000E9F7EAE2F2E0FB87EA8766E272E087E077
:1047D000D82EEA85FB85A191FB87EA87FB018191B1
:1047E000BF01840F952F911D9C012A513C4F190147
:1047F000EA2FF0E0EA53FC4F80E090E03D2D381BBB
:104800003987EE24E394082E01C0EE0C0A94EAF7EF
:10481000310100E0D3011D913D011E212985201B9E
:10482000277030E0B12F022E01C0BB0F0A94EAF7C7
:104830003195219531092770332701C016952A95A6
:10484000EAF71B2B2081212B20830F5F083011F703
:10485000019631968830910589F6EEE2F2E02A85DC
:104860003B85E217F30709F0B4CF04E610E020E23D
:1048700030E046EC53E060E488E70E94FA26892B9A
:1048800009F0DCCE409450948091E8059091E905C0
:10489000842195219093E9058093E805CFCE9695E4
:1048A000879596958795282F912F9295990F9076B9
:1048B0003FE1390F63CF4A515C4F04E610E020E23C
:1048C00030E0D9CF8091A903811509F40DCEA0E184
:1048D000A9BD09BD09B400FEFDCF8091D8008F7D30
:1048E0008093D8008091E00082608093E000809106
:1048F000E00081FDFCCF0E94440FF6CD78941F921A
:104900001FB61F9211248F939F93AF93BF938091F3
:10491000EC029091ED02A091EE02B091EF020196AF
:10492000A11DB11D8093EC029093ED02A093EE02C5
:10493000B093EF02BF91AF919F918F911F901FBED7
:104940001F9018951F920F920FB60F9211242F935C
:104950003F934F935F936F937F938F939F93AF9307
:10496000BF93EF93FF938091E10082FF09C0809194
:10497000E20082FF05C08091E1008B7F8093E1001F
:104980008091DA0080FF24C08091D80080FF20C091
:104990008091DA008E7F8093DA008091D90080FFC9
:1049A000A9C080E189BD82E189BD09B400FEFDCFC7
:1049B00081E08093AA038091DB02811109C00E94EB
:1049C000230C0E94E70C8091E20084608093E20057
:1049D0008091E10080FF1AC08091E20080FF16C044
:1049E0008091E2008E7F8093E2008091E2008061FE
:1049F0008093E2008091D80080628093D80019BC37
:104A000085E08093AA0383E0809344018091E100D4
:104A100084FF2FC08091E20084FF2BC080E189BD1C
:104A200082E189BD09B400FEFDCF8091D8008F7D61
:104A30008093D8008091E1008F7E8093E100809187
:104A4000E2008F7E8093E2008091E200816080939B
:104A5000E2008091DA02811509F452C084E080936B
:104A6000AA038091AA03843009F052C082E08093A7
:104A700044018091E10083FF2CC08091E20083FF1C
:104A800028C08091E100877F8093E10082E08093DD
:104A9000AA031092DA028091E1008E7F8093E100F8
:104AA0008091E2008E7F8093E2008091E20080613D
:104AB0008093E20042E060E080E00E94B70C8091C9
:104AC000F00088608093F00081E08093440180933F
:104AD0004301FF91EF91BF91AF919F918F917F9192
:104AE0006F915F914F913F912F910F900FBE0F905B
:104AF0001F90189519BC1092AA031092DB0268CF80
:104B00008091E30087FF02C083E0A9CF81E0A7CFB7
:104B100081E0ADCF1F920F920FB60F921124EF924A
:104B2000FF920F931F932F933F934F935F936F9336
:104B30007F938F939F93AF93BF93CF93EF93FF9305
:104B400009EE10E0F8018081C091EC008F70C795EC
:104B5000CC27C795C82B108280EFE82EF12CF701E7
:104B60008081877F808378940E947C0FF801108277
:104B7000F701808188608083CF70F801C083FF9146
:104B8000EF91CF91BF91AF919F918F917F916F9155
:104B90005F914F913F912F911F910F91FF90EF9057
:104BA0000F900FBE0F901F901895FF920F931F93B9
:104BB000CF93DF93182FEB011092BC0084EA80930F
:104BC000BC000E943216082FF92E8091BC0087FF8E
:104BD00028C08091B900887F883029F08091B90081
:104BE000887F8031A1F51093BB0084E88093BC00DE
:104BF0000E943216182F092F8091BC0087FF1FC01A
:104C00002091B900287F80E090E0283199F081E080
:104C100090E0203411F480E090E091958195910925
:104C200009C0802F9F2D0E943E16C817D90768F62D
:104C30008EEF9FEFCDB7DEB7E5E00C944429812FCE
:104C4000902F0E943E16C817D907B0F6F1CF8FEF0C
:104C50009FEFF0CF1092B9008CE08093B8000895D8
:104C60000F931F93CF93DF93EB018093BB0084E8F6
:104C70008093BC000E943216182F092F8091BC002F
:104C800087FF11C02091B900287F81E090E0283291
:104C900011F480E090E0919581959109DF91CF9199
:104CA0001F910F910895CF3FDC0741F3812F902F83
:104CB0000E943E16C817D90708F78EEF9FEFEECF78
:104CC000A0E0B0E0E6E6F6E20C942029782EB62EBD
:104CD000A72E6A01E9010E9432164C01C431D105A8
:104CE00028F1CF3FDC0731F1CE0164E170E00E9492
:104CF0000729F62EE72E6F2D7E2D872D0E94D525B4
:104D00008C01892BD1F4EB2CFA2CCE0CDF1CEC148B
:104D1000FD0419F001151105D1F084E98093BC0060
:104D2000C801CDB7DEB7EDE00C943C29FF24F39425
:104D3000E12CE1CF85E0F82EFBCFCF3FDC07D9F2A5
:104D4000C4010E943E16C817D907A8F6DCCFBE01E1
:104D5000F70181917F010E9430268C01D8CFA0E01D
:104D6000B0E0E5EBF6E20C942029782EB62EA72EC3
:104D70006A0189010E9432164C010431110518F1B3
:104D80000F3F100719F1C80164E170E00E94072984
:104D9000EB01BE01872D0E94D5257C01892BC1F432
:104DA000CB2DDA2DCC0EDD1ECC15DD0519F0E1146E
:104DB000F104C1F084E98093BC00C701CDB7DEB730
:104DC000EDE00C943C29C1E0D0E0E3CFC5E0FCCF9E
:104DD0000F3F1007F1F2C4010E943E160817190791
:104DE000C0F6DECFFE018491B8010E9430267C011E
:104DF0002196DACFA0E0B0E0E0E0F7E20C941F29C2
:104E0000682E962E5A01690178010E943216782E7A
:104E1000892E0431110530F10F3F100731F1C8011F
:104E200064E170E00E940729162F072F612F702F71
:104E3000862D0E94D525EC01892BC9F0FFEFEF16D6
:104E4000FF06A1F3872D982D0E943E16E816F9065D
:104E500068F784E98093BC00CE01CDB7DEB7EEE001
:104E60000C943B2911E000E0E1CF15E0FCCFB70145
:104E7000892D0E943026EC018501CA0CDB1C0C1523
:104E80001D0539F3209729F7B701F80181918F01AA
:104E90000E943026EC01F3CF8EE14A9B02C08A9536
:104EA000E1F74A9BFECF08955A9880E28A95F1F780
:104EB0005A9A0895FC013BE03A95F1F798E020E01A
:104EC00080E031E040E14A95F1F7880F4A9B02C04B
:104ED0008160232742E04A95F1F7000040E14A95BE
:104EE000F1F79A9579F790E19A95F1F799B132E057
:104EF0003A95F1F7000040E14A95F1F792FB9927C6
:104F000090F992272081920F90830895A1E0B0E05C
:104F1000ECE8F7E20C94272919828C017C01E60E5B
:104F2000F11C0E944C27CE0101960E945A27F801DD
:104F300081938F01EE15FF05A1F781E09981911111
:104F400080E02196E6E00C944329529A5A9A0895FB
:104F500052985A9AEA9AE9E6F0E080818F7C808341
:104F600008956150770B91E001C0990F6A95EAF7B7
:104F7000692F90E021E0611108C0911599F05A9ACB
:104F800080E28A95F1F75A980895362F3823311523
:104F900039F05A9A922730E23A95F1F76695EBCFBD
:104FA0005A98F9CF5A98ECCFFF920F931F93CF9353
:104FB000DF93EC018C01060F111DF9900E9454271C
:104FC00068E08F2D0E94B127C017D107B1F7CDB788
:104FD000DEB7E5E00C9444291F920F920FB60F92B2
:104FE00011240F931F932F933F934F935F936F93CE
:104FF0007F938F939F93AF93BF93EF93FF93CF9341
:10500000DF930F92CDB7DEB719820E944C27CE01F5
:1050100001960E945A27082F069506950695982F07
:1050200092959570202F2570920F292F23709695B9
:105030009695920F982797708981892B811509F091
:105040005CC0063008F059C080E18A95F1F75A9AA1
:10505000529A82E08A95F1F700C05A9888E0089F3A
:1050600080011124D801A75EBE4F1696ED91FC91E8
:1050700017973097A9F060912E0270912F02149625
:105080002D913C911597260F371F11968D919C916C
:105090001297680F791F13964C9113978C9109956D
:1050A000F801E75EFE4F6381611551F020912E02F9
:1050B00030912F0284819581820F931F0E94D42703
:1050C0000E94542780E18A95F1F75A9852985A9A8B
:1050D00080E18A95F1F7F801E75EFE4F6081611586
:1050E00051F020912E0230912F0281819281820F06
:1050F000931F0E9486270E944C270F90DF91CF912B
:10510000FF91EF91BF91AF919F918F917F916F919F
:105110005F914F913F912F911F910F910F900FBE73
:105120000F901F9018950F931F93CF93DF938C01CF
:1051300006970CF064C0F894529A5A9885E08A95C4
:10514000F1F70000C02FC695C570802F8570C80F7D
:105150008C2F8370C695C69593E0000F111F9A950A
:10516000E1F7C80FC8018C2BEC010E94542700C046
:1051700068E08C2F0E94B12790E19A95F1F7529840
:105180005A9A4A9B35C087E090E04A9933C0F801AB
:10519000E75EFE4F6381611561F020912E02309130
:1051A0002F0284819581820F931F0E94862781158B
:1051B00019F10E944C2780E28A95F1F75A98529A89
:1051C00090E19A95F1F7F801E75EFE4F6081611575
:1051D00051F020912E0230912F0281819281820F15
:1051E000931F0E94D4270E945427789481E008C01E
:1051F00000C0C7CF019749F4529A5A9A789480E038
:10520000DF91CF911F910F91089500C0BECFAA1BCF
:10521000BB1B51E107C0AA1FBB1FA617B70710F0A1
:10522000A61BB70B881F991F5A95A9F780959095D3
:10523000BC01CD0108952F923F924F925F926F92E1
:105240007F928F929F92AF92BF92CF92DF92EF9216
:10525000FF920F931F93CF93DF93CDB7DEB7CA1B97
:10526000DB0B0FB6F894DEBF0FBECDBF09942A88C2
:10527000398848885F846E847D848C849B84AA846A
:10528000B984C884DF80EE80FD800C811B81AA81F7
:10529000B981CE0FD11D0FB6F894DEBF0FBECDBFC2
:1052A000ED010895992778E0880F991F961708F067
:1052B000961B881F7A95C9F780950895A1E21A2E4A
:1052C000AA1BBB1BFD010DC0AA1FBB1FEE1FFF1FAA
:1052D000A217B307E407F50720F0A21BB30BE40BFA
:1052E000F50B661F771F881F991F1A9469F7609541
:1052F0007095809590959B01AC01BD01CF010895FB
:10530000EE0FFF1F0590F491E02D0994FB01DC01E5
:1053100002C005900D9241505040D8F70895FB010E
:10532000DC0104C08D910190801921F4415050405E
:10533000C8F7881B990B0895FB01DC0102C001909E
:105340000D9241505040D8F70895DC01CB01FC018B
:10535000F999FECF06C0F2BDE1BDF89A319600B4CE
:105360000D9241505040B8F70895F999FECF92BD83
:1053700081BDF89A992780B50895A8E1B0E042E090
:1053800050E00C94A729DC01A40FB51F41505040F8
:1053900048F0CB01840F951F2E910E94D4294150D3
:1053A0005040D0F70895262FF999FECF92BD81BDC8
:1053B000F89A019700B4021639F01FBA20BD0FB653
:1053C000F894FA9AF99A0FBE08950396272F0E942F
:1053D000D4290E94D329252F0E94D429242F0C944C
:1053E000D4290196272F0E94D4290C94D329F8940C
:1053F000FFCF5D108310891083108910DC10FE1020
:105400008910FC110912301898183818021806185B
:105410003C180A1840184C18161891181A185018E9
:105420001E185418791822185818801828185E1851
:1054300066180E184418121848182C18621870189C
:1054400089188F18FC1734189F18C218C518FB1834
:10545000CA180019CF180519D4180A19D9180F1924
:10546000DE18F118C218C518FB18CA180019CF1891
:105470000519D4180A19D9180F19D917DD17CF171C
:08548000D517E117E517E91744
:1054880000FF00FFFF01210BC10DD80D790BDF0DC7
:10549800FF000021007F220003000000010000003F
:1054A80000000000040100000004050000000000E6
:1054B800000409000000000000090D0000000000C1
:1054C8000000000100200300FF78181712110A09D4
:1054D800191613100B081A15140F0C07FFFFFF0EEF
:1054E8000D0633322D2C252434312E2B262335302E
:1054F8002F2A2722FFFFFF2928215510320D1014CB
:105508001026323055345F3F55275515550444024F
:1055180044134425503A3C373223320D32002103DC
:1055280021142125102A1018100700070018002937
:105538008B10AE0DD014D026AE308B34813F8B2724
:105548008B158B049C029C139C25903AA437AE23A0
:10555800AE0DAE00BF03BF14BF25D02AD018D007A8
:10556800E007E018E0290202020202020104040432
:1055780004040401010404040404040404040101EF
:1055880001020202020202010404040404040101EB
:10559800040404040404040404010101946697C685
:1055A800F4F5F6F73133000810181810080007064C
:1055B800E200E900EA00B500B600B700CD008301BB
:1055C800CC008A01920194012102230224022502BF
:1055D800260227022A02B300B4006F0070009F0160
:1055E800CB019F02A002E200E900EA00B500B60084
:1055F800B700CD008301CC008A01920194012102F9
:10560800230224022502260227022A02B300B4003C
:0C5618006F0070009F01CB019F02A002F8
:00000001FF
